:020000040800F2
:100000002025002099010008E73700083D2F00084F
:10001000E5370008650D0008E9460008000000000B
:1000200000000000000000000000000001010008C6
:100030009F0D0008000000004501000889420008EB
:10004000B3010008B3010008B3010008B3010008C0
:10005000B3010008B3010008B3010008B3010008B0
:10006000B3010008B3010008B3010008690D0008DE
:10007000B3010008B3010008B3010008B301000890
:10008000B3010008B3010008B3010008B301000880
:10009000B3010008B3010008B3010008B301000870
:1000A000B30100085D430008B3010008B301000874
:1000B000B3010008B3010008B3010008B301000850
:1000C000B3010008B3010008B3010008B301000840
:1000D000B3010008D1460008DD460008B30100085E
:1000E000B3010008B3010008B3010008DFF80CD029
:1000F00000F012FD00480047C167000820250020DD
:10010000224B19680868B0E8F00F80F30988BFF344
:100110006F8F4FF0000080F311884EF00D0E704786
:100120000000000006480068006880F3088862B696
:1001300061B6BFF34F8FBFF36F8F00DF00BF00BF0B
:1001400008ED00E0EFF30980BFF36F8F0F4B1A68E3
:1001500020E9F00F106008B54FF0500080F31188CF
:10016000BFF34F8FBFF36F8F07F03AFE4FF00000E1
:1001700080F31188BDE8084019680868B0E8F00FFE
:1001800080F30988BFF36F8F704700BF6C000020B9
:10019000EFF3058070470000064880470648004797
:1001A000FEE7FEE7FEE7FEE7FEE7FEE7FEE7FEE727
:1001B000FEE7FEE715430008ED0000082DE9F041D9
:1001C0000024061B254671F1000605DA01240027EC
:1001D000D0EB070067EB0101161E73F1000605DA8C
:1001E0000027D2EB0702012567EB030300F07EFB3B
:1001F00086460E4617469C46AC4204D00025D0EBFE
:10020000050E65EB010624B10020D2EB000760EB80
:10021000030C704631463A466346BDE8F081202A19
:1002200004DB203A21FA02F00021704721FA02F3A0
:10023000D040C2F12002914008431946704740EA7D
:1002400001039B0703D009E008C9121F08C0042A54
:10025000FAD203E011F8013B00F8013B521EF9D23B
:100260007047D2B201E000F8012B491EFBD2704763
:100270000022F6E710B513460A4604461946FFF772
:10028000F0FF204610BD421C10F8011B0029FBD1D5
:10029000801A704730B504460020034600E05B1C1E
:1002A000934203D2E05CCD5C401BF8D030BDF0B48B
:1002B00080EA0102D40F4200B2EB410F02D20246A3
:1002C000084611464A0042D0C30DDDB2C1F3C75201
:1002D000AD1A202D35DAC1F3160141F4000204B144
:1002E0005242C5F1200602FA06F12A411044B3EB4E
:1002F000D05F23D0C4B1012DA0EBC35009DCF0BC0A
:100300004FF0004202EAC352DBB200F5000000F0F9
:1003100048BB400000F1807000EBC350A0F180703A
:1003200040EAD170490009E0490841EAC071A0EBF8
:10033000C35000F50000400800EBC350F0BC00F0D3
:1003400027BB6142012202EB4101001BF6E7F0BC32
:10035000704781F00041AAE780F00040A7E780EAFB
:10036000010210B502F00043400022D04A001FD025
:10037000010E01EB1261C0F35600C2F3560240F4C5
:10038000000042F40002A0FB022000047F391404A4
:1003900000D0401C50EA124001D44000491EC2B2B5
:1003A0000C0604EBD010401C4008802A02D003E069
:1003B000002010BD20F00100002900DA00201843C1
:1003C00010BD30B480EA010202F0004530F0004276
:1003D00021F0004013D090B1C30DD40DC2F316012B
:1003E000C0F31600E41A41F4000140F400027D3429
:1003F000914201D3641C00E04900002C02DA30BCB9
:10040000002070474FF400000023914201D3891A65
:10041000034340084FEA4101F7D151B1914202D163
:100420004FF0004105E002D24FF0010101E06FF012
:10043000010103EBC450284430BC00F0A9BA4200CB
:1004400005D0C0F3C7525242914201DC00207047F0
:1004500000EBC15070472DE9FE4F804681EA030052
:10046000C00F0C46009021F0004123F00045B8EB8E
:100470000200A94105D24046214690461C460B4643
:10048000024623F00040104347D0270DC7F30A006F
:10049000C3F30A510290401A019040286BDAC3F36B
:1004A000130040F4801B0098924620B10023D2EB49
:1004B000030A63EB0B0B01985946C0F1400250460A
:1004C00000F045FA06460D4650465946019A00F09E
:1004D0004DFA10EB08006141002487EA115284EACA
:1004E000E7731A4340D0009A62B3019A012A4FEA97
:1004F000075215DC001B61EB02014FF0004202EADB
:100500000752CDE90042001C41F5801132462B46CE
:1005100000F084FA03B0BDE8F08F40462146F9E7C9
:10052000001B61EB0201001C41F5801300185B41C8
:100530002018A2F5001747EB030140EAD570B61961
:100540006D4111E06D084FEA360645EAC0754FEA85
:100550000752001B61EB0201001C41F580114908A4
:100560004FEA30000019514132462B4603B0BDE836
:10057000F04F00F044BA0098012240000023D0EB75
:10058000020263EBE073009821464FEAE074B8EB97
:10059000000061EB0401E9E783F000435BE781F0D1
:1005A000004158E72DE9FE4F81EA030404F00044BE
:1005B00021F0004100944FF0000B23F0004350EA7B
:1005C00001045ED052EA03045BD0C3F30A54C1F3C2
:1005D0000A552C44A4F2F3340194A0FB0254C1F355
:1005E000130141F48011C3F3130343F4801301FB9F
:1005F000024400FB034E840A970A44EA815447EA06
:100600008357A4FB076802958D0A05FB07854FEA0F
:10061000932C04FB0C542705029D4FEA065847EA29
:100620001637B5EB08056EEB070C870E920E47EAFE
:10063000811742EA8312A7FB0201B6EB0B0164EBC0
:1006400000042B0D43EA0C335E1844EB1C50DA46D1
:100650005146E7FB0201C5F313044FEA0B3343EAAB
:1006600014534FEA0432019C43EA0603A4F10C043C
:100670000294009CCDE900B400F0D0F903B0BDE8CD
:10068000F08F00200146F9E72DE9F04D81EA0304DF
:1006900004F0004B21F0004514464FF0000A23F00F
:1006A000004150EA050220D054EA01021DD0C5F3F2
:1006B0000A570246C5F31303C1F31300C1F30A56E8
:1006C00040F4801543F48013A7EB0608101BD646B0
:1006D00008F2FD3873EB050002D308F1010801E0D0
:1006E00092185B41B8F1000F03DA00200146BDE823
:1006F000F08D00204FF48011064684460EE0171B53
:1007000073EB050705D3121B63EB050306434CEAA5
:10071000010C49084FEA300092185B4150EA01078A
:10072000EDD152EA030012D082EA040083EA050107
:10073000084305D0101BAB4106D20122002306E07E
:1007400000224FF0004302E06FF0010253101AEB59
:1007500006004CEB085110EB0A0041EB0B01BDE821
:10076000F04D00F04CB970B521F0004303430CD0BC
:10077000C1F30A550024D5EB040564EB0403D61736
:10078000AD1AB34102DB0020014670BD201841EBD9
:10079000025170BDC10F80EAE0700844CA07962379
:1007A000002100F0FEB896230022114600F0F9B8AF
:1007B0000EB540F2334102910021CDE900110A4605
:1007C0000B4600F02BF903B000BD00F0004220F012
:1007D0000040C10DC0F3160040F400007F2901DA8B
:1007E00000207047962903DCC1F19601C84001E062
:1007F00096398840002AF4D04042704720F00040EB
:10080000C10DC0F3160040F400007F2901DA00207A
:100810007047962903DCC1F19601C84070479639AC
:100820008840704770B5C1F30A5201F000450024BA
:10083000C1F3130140F2FF3341F480119A4201DA0F
:10084000002070BD40F233439A42A2F2334203DCEF
:100850005242FFF7E4FC00E090402C43F1D04042CC
:1008600070BD00F0004230F000400AD0C10D01F52B
:100870006071C0F3160042EA0151C20840071143FB
:10088000704700200146704701F0004330B421F06A
:10089000004150EA010206D00A0DA2F56072C1F3D0
:1008A0001301002A02DC30BC00207047440F44EAE8
:1008B000C104C100E01830BC00EBC25000F068B8C1
:1008C00030B50B46014600202022012409E021FA20
:1008D00002F59D4205D303FA02F5491B04FA02F51D
:1008E0002844151EA2F10102F1DC30BD2DE9F05FB4
:1008F0000546002092469B4688460646814640248F
:100900001BE02846414647462246FFF788FC5346EF
:100910005A46C01A914110D311461846224600F09B
:1009200016F82D1A67EB01084F46224601200021D8
:1009300000F00DF817EB00094E41201EA4F1010450
:10094000DFDC484631462A464346BDE8F09F202A70
:1009500004DB203A00FA02F1002070479140C2F116
:10096000200320FA03F3194390407047202A06DB46
:10097000CB17203A41FA02F043EAE07306E041FA6D
:1009800002F3D040C2F1200291400843194670475B
:100990000029A8BF7047401C490008BF20F0010093
:1009A000704710B4B0FA80FC00FA0CF050EA010471
:1009B00004BF10BC704749B1CCF1200421FA04F403
:1009C00011FA0CF118BF012121430843A3EB0C01DC
:1009D000CB1D4FEA00614FEA102042BF002010BC3F
:1009E000704700EBC35010440029A4BF10BC7047EF
:1009F000401C490008BF20F0010010BC704710B532
:100A0000141E73F1000408DA401C41F10001921831
:100A10005B411A4301D120F0010010BD2DE9F04DDA
:100A200092469B4611B1B1FA81F202E0B0FA80F22F
:100A300020329046FFF78BFF04460F4640EA0A003B
:100A400041EA0B0153465A46084313D0114653EA74
:100A5000010019D0C8F140025046FFF7E0FB0546FF
:100A60000E46504659464246FFF771FF084305D0EF
:100A7000012004E020463946BDE8F08D0020054302
:100A800046EAE0762C4337430A986305E40AA0EB74
:100A900008000022FD0A44EA47540A3002D500202B
:100AA0000146E9E7010510196941DDE9084500192A
:100AB0006941BDE8F04DA2E7C1F30A52C1F3130149
:100AC00040F2FF3341F480119A4202DA00200146DD
:100AD000704740F233439A42A2F2334202DC524260
:100AE000FFF79DBBFFF733BF30B5041E71F1000463
:100AF00004DB4FF00044404264EB0101141E73F12B
:100B0000000405DB1C464FF00043524263EB040334
:100B1000994208BF904230BD064C074D06E0E068A0
:100B200040F0010394E8070098471034AC42F6D334
:100B3000FFF7E0FA98AC0008B8AC00082DE9F04DDA
:100B400000231A461B1A8A4103DB00200146BDE838
:100B5000F08DC1F30A52C1F3130141F480154FF037
:100B6000000BD10702D100186D41521E0027044628
:100B700040F2FF11384601EB620A3E4680460246CB
:100B800000204FF48011FFF74AFBC2197141BB18D6
:100B900046EB0100B4EB030C75EB000C04D3E41A34
:100BA00065EB000517460E46241908F101006D415A
:100BB00080463428E3DDF91946EB0600091BA841FD
:100BC00003D24FF0FF32134601E0002213461BEB25
:100BD000070046EB0A51BDE8F04DFFF710BF70B5B6
:100BE0008C1810F8015B15F0070301D110F8013BD8
:100BF0002A1106D110F8012B03E010F8016B01F85F
:100C0000016B5B1EF9D12B0705D40023521E0DD4B6
:100C100001F8013BFAE710F8013BCB1A921C03E004
:100C200013F8015B01F8015B521EF9D5A142D8D33C
:100C3000002070BD70B5044600688168C943C907CB
:100C40001CD1816821F00101816001F04DFA054657
:100C50000FE000BF01F048FA401B022809D9A06A42
:100C600040F01000A062E06A40F00100E062012064
:100C700070BD20688068C043C007EBD0002070BD05
:100C800010B50146406A826A12F0500F05D0006A22
:100C9000026BBDE8104008461047816A41F40071BC
:100CA000816201688968C1F3424107290CD1C1689A
:100CB00051B9816A21F480718162816AC90403D4C7
:100CC000816A41F00101816200F044FE10BD10B55F
:100CD000406A816A41F040018162C16A41F00401C9
:100CE000C16200F04EFE10BD10B5406A00F048FE33
:100CF00010BD0000F8B50026044600960068816823
:100D0000C943C90728D0816841F0010181601348B7
:100D100013490068B0FBF1F000E0401E009000288D
:100D2000FBD101F0E1F9054611E000BF01F0DCF96B
:100D3000401B02280BD9A06A40F01000A062E06AB4
:100D400040F00100E06284F824600120F8BD2068D2
:100D50008068C043C007E9D10020F8BD68000020CA
:100D600040420F00FEE70000014800F0B3BF000062
:100D70007803002030B590F840500124AC40C56B9A
:100D80006C60046863604368102B036803D099604B
:100D90000068C26030BD9A600068C16030BD7047B5
:100DA0002DE9F0470446167803F00700DFF8548178
:100DB000089D91460F46082805D2DFE800F004168A
:100DC000293C4F627588300602D598F81C2006E051
:100DD00098F81C00012801D0012200E00022B9B2DD
:100DE000A0B202F041FE6D1E76D0700602D598F8D2
:100DF0001C2006E098F81C00012801D0012200E028
:100E00000022601CB9B280B202F02EFE6D1E76D0B8
:100E1000B00602D598F81C2006E098F81C000128BE
:100E200001D0012200E00022A01CB9B280B202F081
:100E30001BFE6D1E63D0F00602D598F81C2006E05C
:100E400098F81C00012801D0012200E00022E01CDB
:100E5000B9B280B202F008FE6D1E50D0300702D544
:100E600098F81C2006E098F81C00012801D0012207
:100E700000E00022201DB9B280B202F0F5FD6D1E27
:100E80003DD0700702D598F81C2006E098F81C00A9
:100E9000012801D0012200E00022601DB9B280B219
:100EA00002F0E2FD6D1E2AD0B00702D598F81C2092
:100EB00006E098F81C00012801D0012200E0002281
:100EC000A01DB9B280B202F0CFFD6D1E17D0F007A1
:100ED00003D098F81C2007E011E098F81C000128C6
:100EE00001D0012200E00022E01DB9B280B202F080
:100EF000BBFD6D1E03D019F8016F083463E7BDE830
:100F0000F0870000EC1C0020704700002DE9F04342
:100F1000474C81468DB0207808B100206061607830
:100F200010B10120606101E0606900B30022114648
:100F300040A000F085FB4648424B434A4349B0F984
:100F40000000B3F90030B2F90020B1F900108DE8CB
:100F50000F00404841A1B0F900303F48B0F90020EF
:100F6000484603F0DFFBA078012849D050E000227A
:100F7000114645A000F064FB484D0221284601F0CF
:100F8000A9F8E8B146A70121284601F0A3F8C8B1A5
:100F900043A6DFF810818021404601F09BF898B10C
:100FA0003FA54021404601F095F878B13CA0A189C9
:100FB000CDE90571CDE90356E17849B13AA108E0E0
:100FC0003AA7E0E739A6E4E738A5EAE737A0EEE775
:100FD00037A1A2780AB134A200E035A20092CDE98F
:100FE0000110607808B130A300E031A3207808B187
:100FF0002DA200E02EA22FA1484603F093FBB2E7FA
:10100000A07998B10020A0714FF4967006F0B0FA64
:10101000626935A107A8521C03F084FB00226E21EF
:1010200007A800F00DFB0DB0BDE8F0830120EAE752
:1010300000000020CDD3C2DDD2C7D4ADCABCCAFDEA
:10104000BEDD00000A01002004010020080100208C
:101050000201002006010020000100200A0A617838
:101060003A2536642067783A2536640A61793A254C
:1010700036642067793A2536640A617A3A253664FF
:1010800020677A3A25366400B0B4BCFC7C4C4544F9
:101090007C414443D7B4CCAC00000000000C0140BC
:1010A000A1F0000000080140A8780000A1F10000B4
:1010B000A87C00000A0A4B312573204B322573208F
:1010C0004B332573204B3425730A4C312573204C48
:1010D000322573204C332573204C343A25730A4152
:1010E00044433A256400000025642F3200000000CC
:1010F0002DE9F047574C82468AB02078002600B18F
:101100006661607808B101206061A0780128606A9A
:1011100002D138B1002060624F4DDFF840910128C4
:1011200002D041E00120F6E74DA24EA1504603F067
:10113000F9FA4D482968FFF70CF9FFF792FB4B4A83
:101140004B4BFFF72FFAFFF76DFBA062002801DC85
:10115000A66203E0782801DB7820A062D9F80000BD
:10116000444E4FF08547B0F5000F4FF0010108DB0A
:10117000FFF765F93146FFF724F93946FFF7ECF838
:1011800007E0FFF75CF93146FFF71BF93946FFF737
:101190008EF8FFF71AFBE062024637A0A16A00F062
:1011A0004FFA0A2000F0A6FE606A002816D1606996
:1011B000A046B0B14FF00002012811462ED02FA05A
:1011C00000F03EFAD8F814202EA104A8521C03F017
:1011D000A9FA00226E2104A800F032FA0AB0BDE894
:1011E000F0870022114629A000F02AFA2B48006857
:1011F000FFF737FB04460E462868FFF732FB05462B
:101200000F46D9F80000FFF72CFBCDE90246CDE9E7
:1012100000570B46024622A1504618E02CA000F0D1
:101220000FFA32482E4B2F4A2F49B0F90000B3F97C
:101230000030B2F90020B1F900108DE80F002C4801
:101240002DA1B0F900302B48B0F90020504603F032
:1012500069FAB7E700000020200100201C010020EF
:1012600000000000257300000000B442F2D24D627D
:101270001058E53F00004040A1F100004552524F98
:101280005200000025642F32000000004D505536FA
:10129000303530D7CBCCACBDC700000024010020D6
:1012A0000A0AB8A9D1F6BDC73A25362E3166A1E3A0
:1012B0000ABAE1B9F6BDC73A25362E3166A1E30A6E
:1012C000BABDCFF2BDC73A25362E3166A1E3000084
:1012D000CDD3C2DDD2C7D4ADCABCCAFDBEDD0000CD
:1012E0000A01002004010020080100200201002062
:1012F00006010020000100200A0A61783A253664C0
:101300002067783A2536640A61793A253664206781
:10131000793A2536640A617A3A25366420677A3A42
:101320002536640070B504460022114627A000F05F
:1013300087F9294A29A1204603F0F4F9284C4FF4F3
:1013400096752078012811D1606B4FF06401401C24
:1013500060630FD001280FD002280FD0032811D0CE
:101360000020C4E90C10284606F002F9A0780128F4
:101370000BD011E02163F6E7C82001E04FF4FA70CA
:101380002063F0E74FF47A70FAE7A06B40B10020D9
:10139000A063284606F0ECF86078012802D005E04A
:1013A0000120F5E7E06B48B10020E063A06B4FF04F
:1013B00000024FF0460118B10AA002E00120F4E754
:1013C0000BA0BDE8704000F03BB90000B4AEBFDA3E
:1013D000B2E2CAD400000000140300200A25730002
:1013E00000000020D5FDD4DAB7A2CBCD000000006C
:1013F000CDA3D6B9B7A2CBCD000000000A2805D0F6
:101400000D2805D0034909690968084700F096B816
:1014100070470000EC1C00207CB514460D46826825
:101420008188CDE90012438802882146284601F0D0
:1014300037FE7CBD7CB51E4C054629462069806977
:1014400000F038F8002831D041680088281A01EBF4
:10145000C0056968A878CDE9000120692A78B4F947
:101460001610037DB4F9140001F01AFE2169487DBD
:10147000097D884212D9227F012A01D0012200E091
:1014800000220092A28A2B78E68A1A44304483B262
:10149000701881B292B2A08A02F036FA2269B4F9C9
:1014A00014006978927D01FB0200A0827CBD0000DF
:1014B000EC1C002006E002888A4202D842888A4258
:1014C00002D280680028F6D17047000070B5094D3F
:1014D0000446214628698069FFF7ECFF002807D001
:1014E00041680088201A11F830002969897D484335
:1014F00070BD0000EC1C002001200880704710B572
:101500008069FFF7D7FF002800D0012010BD10B57B
:101510000021084600F0C0F8402380220021BDE8E9
:1015200010400846AFF3008038B500249BB292B259
:1015300089B280B2009402F0E7F938BD00B500F03E
:101540008FF80249CA8A1044C88200BDEC1C0020F2
:101550002DE9FC47060054D000F082F8374C814654
:10156000B4F9148000F082F8E18A0746C81BE082D3
:101570003DE000BF47F6FF71304600F0F8F88246C4
:101580000146304600F0DAF80546A07E00F0030080
:1015900001283CD0022836D00020A18A6A46081AC9
:1015A000A082ADF80000691E0844ADF80400E08A8E
:1015B000ADF80200A9F101010844ADF8060051465A
:1015C000304600F0A1F8BDF80200E08251463046F6
:1015D00000F092F8064430780A281AD00D2818D066
:1015E000BDF800002844A082307818B1761C30780D
:1015F0000028BFD1E08A3844E082608B20F00300ED
:101600006083BDE8FC8705EBD5704010C5E7284630
:10161000C3E7A07E00F0030001280BD0022809D008
:101620000020A08230780A28DED1E18A01EB09008F
:10163000E082D9E7A4F81480F4E70000EC1C002055
:10164000024B9982DA82FFF783BF0000EC1C002076
:10165000FFF7E2BE0149096949680847EC1C002010
:1016600001480069407D7047EC1C002009490020BA
:10167000897E01F00C020749042A096906D0082A6C
:1016800001D00C2A01D1087D40087047087D401E1A
:1016900070470000EC1C002070B50D4603F026F8E2
:1016A0000446284603F028F8204370BD0B4910B5C6
:1016B0002E2008700A4800217F220180418082800C
:1016C0003F22C2808182C1820649016101214172AB
:1016D000017702F041FA002010BD0000CC0000208C
:1016E000EC1C00203C9D0008024A116900B1106109
:1016F00008467047EC1C0020002000E0401C491EFA
:10170000FCD2704702F0DCB970B50B4B126804468E
:101710009A821214DA820D460BE000BF14F8010B16
:101720007F2804D914F8011B6D1E41EA0020FFF741
:1017300065FE6D1EF2D570BDEC1C002070B50D4627
:1017400004004FF000060CD10FE0641C6D1E7F28D2
:1017500004D914F8011B6D1E41EA0020FFF77AFF3F
:101760000644207808B1002DEFDA304670BD002223
:1017700008E0401C7F2B02D9401C521C01E00A2BC0
:1017800004D0521C03780BB18A42F2DB104670473A
:10179000F8B500250446009590F82400012808D0EB
:1017A000012084F824002046FFF744FA060002D006
:1017B0004BE00220F8BDA06A20F4885040F00200FF
:1017C000A062022000F04CFD22490968B1FBF0F054
:1017D000400000E0401E00900028FBD12046FFF7AB
:1017E00089FA2068816841F00801816000F07CFC82
:1017F000074604E000F078FCC01B0A2811D82068D6
:1018000080680007F6D42068816841F00401816097
:1018100000F06AFC07460EE000F066FCC01B0A28D8
:1018200009D9A06A20F0020040F01000A06284F8FC
:1018300024500120F8BD206880684007ECD4A06ADD
:1018400020F0020040F00100A06284F824503046ED
:10185000F8BD000068000020F8B50024009490F85E
:1018600024202546012A12D0012280F824204A682B
:101870001F23072A0DD20668776B521E02EB8202E5
:1018800093409F430B6893401F43776319E0022006
:10189000F8BD06680D2A0AD2376BD21F02EB82020E
:1018A00093409F430B6893401F43376309E0F76AF7
:1018B0000D3A02EB820293409F430B6893401F4313
:1018C000F7620A68072306680A2A0AD3F7680A3A01
:1018D00002EB420293409F438B6893401F43F760A3
:1018E00008E0376902EB420293409F438B689340C4
:1018F0001F4337610A68102A01D0112A20D1124BE8
:1019000002689A4217D193681B0219D4936843F472
:10191000000393600968102912D10C490C4A096828
:10192000B1FBF2F101EB8101490000E0491E009199
:101930000029FBD104E0816A41F020018162012489
:1019400080F824502046F8BD0024014068000020A3
:1019500040420F000021084A084600BF32F810300C
:10196000401C194489B21428F8DB1420B1FBF0F0B4
:101970000249888170470000EC020020000000202E
:10198000704770472DE9F0414FF0000704003D46D5
:101990007ED0A06A002628B9E66284F8246020463A
:1019A00000F07EF82046FFF745F9A16AC90600D489
:1019B00020B1A06A40F01000A06269E0A16A21F4A1
:1019C000885141F00201A1626268E169E3680A435B
:1019D00047EA43010A43A1684FF48077B94209D02E
:1019E000012907D05FF00001D4F814C0BCF1010F49
:1019F00002D00AE03946F7E7F3B1A36A43F02003C7
:101A0000A362E36A43F00103E3622368D3F804C0EE
:101A10002CF4694C4CEA010CC3F804C021688B68B3
:101A2000DFF870C003EA0C0313438B60A168B9426E
:101A30000BD0012909D00CE0DFF85CC0A3690CEBE6
:101A400043330B4343F40061DFE7218A0D05A5F51D
:101A500080152168CB6A23F470032B43CB62216885
:101A600089680E4B1940914208D1E662A16A21F0C3
:101A7000020141F00101A162BDE8F081A06A20F0FD
:101A8000020040F01000A062E06A40F00100E06255
:101A90000120F1E7FDF7E1FF00E0FFFFFE0E1FFF71
:101AA00070B586B000250646009501950295039510
:101AB00000681A4988422ED11949886940F400709B
:101AC0008861886900F400700490886940F004001F
:101AD00088618869694600F0040004900220009043
:101AE000032001900F4800F017FA104C0E48C4E98B
:101AF00000058020C4E90250400020618000606140
:101B00002020C4E90605204600F08EF908B1FFF751
:101B1000FBF93462666206B070BD0000002401402B
:101B20000010024000080140080002407803002035
:101B30002DE9F047894604463B4900683B4F0E1D9E
:101B40009046884201D0B84207D1306810F4702F17
:101B500003D001252846BDE8F08794F82400012829
:101B60000CD0012084F824002046FFF7C3F80500BC
:101B70004FF0000004D084F82400EBE70220EAE7ED
:101B8000A16A40F60162914341F48071A16221682B
:101B9000B94218D1326812F4702F14D0A16A41F4FE
:101BA0008011A1623168490505D5A16A21F400516F
:101BB00041F48051A162A16AC9040AD5E16A21F009
:101BC0000601E16206E0A26A22F48012A26249687C
:101BD000E9E7E06284F82400216A15488862216AF6
:101BE0001448C862216A1448086321686FF0020033
:101BF00008602068816841F48071816021684346F3
:101C00004A464C31206A00F03DF920688168C1F3F2
:101C100042410729816803D041F48011816099E72E
:101C200041F4A001FAE7000000240140002801402F
:101C3000810C0008E90C0008CF0C000810B590F8E2
:101C400021100024022903D00421816301243DE0F6
:101C500001680A6822F00E020A6001680A6822F030
:101C600001020A601A4A0168914201D1012121E072
:101C7000174A1432914201D110211BE0144A283234
:101C8000914201D1891515E0114A3C32914201D1AE
:101C900089140FE00E4A5032914202D14FF4803144
:101CA00008E00B4A6432914202D14FF4801101E006
:101CB0004FF08071064A083A5160012180F82110E6
:101CC000002180F82010416B01B18847204610BDEB
:101CD000080002402DE9F05FC16B0C6801680B68D9
:101CE000D0F840C0042202FA0CF2494DDFF824A1DA
:101CF000494E4A4FDFF828B1DFF828E122422CD0C4
:101D00005A072AD50A68920603D40A6822F0040208
:101D10000A600168A94201D1042219E0514501D1AC
:101D2000402215E0B14202D14FF4806210E0B94286
:101D300002D14FF480420BE0594502D14FF480228A
:101D400006E0714502D14FF4800201E04FF080625D
:101D50002F4908394A60C16A3BE04FF0020808FA8F
:101D60000CF818EA040F4FF000094FF0010235D0CB
:101D70005FEA837832D50B689B0605D40B6823F0A5
:101D80000A030B6080F821200168A94201D10222D8
:101D900019E0514501D1202215E0B14202D14FF4A2
:101DA000007210E0B94202D14FF400520BE05945E5
:101DB00002D14FF4003206E0714502D14FF4001217
:101DC00001E04FF00072124908394A6080F8209013
:101DD000816A00291AD0BDE8F05F0847082505FA96
:101DE0000CF5254212D01B0710D50B6823F00E030B
:101DF0000B6090F84010C36B02FA01F159608263E6
:101E000080F8212080F82090016BE2E7BDE8F09F88
:101E1000080002401C000240300002404400024022
:101E2000580002406C00024030B528B308C813497E
:101E300014221944B1FBF2F18900C1631049816396
:101E4000022141771A6843F6F0718A43D0E9001401
:101E50002143D0E902452C432143046921434469CD
:101E60002143846921431143196000214163012208
:101E700042770177084630BD012030BDF8FFFDBF35
:101E80000000024070B5044690F8200000250128AB
:101E90000CD0012084F8200094F821600020012E4D
:101EA00006D084F820000225284670BD022070BDAF
:101EB000022684F82160A0632068066826F00106E7
:101EC00006602046FEF756FFE06A00282068016899
:101ED00002D041F00E0106E021F00401016020680B
:101EE000016841F00A0101602068016841F00101C8
:101EF0000160D9E770B5044600F0F6F80546601CAD
:101F000002D004480078044400F0EEF8401BA042E0
:101F1000FAD370BD5C0000202DE9F84FDFF890A1E6
:101F200000220AF1040B144601274FF00F090BF1B0
:101F3000040E00BF0B6807FA04F52B40AB4274D1C6
:101F4000DFF870C14E68A6EB0C0866452BD00DDC9F
:101F5000032E34D005DC36B3012E19D0022E2FD13A
:101F60001BE0112E16D0122E2AD119E0B8F5881FC9
:101F700019D006DCB8F5803F15D0B8F5801F1FD109
:101F800011E0B8F5001F0ED0B8F5041F18D10AE013
:101F9000CA6815E0CA68121D12E0CA6808320FE06C
:101FA000CA680C320CE08A682AB1012A4FF0080294
:101FB00003D0456104E0042202E0056100E0002254
:101FC000FF2B01D8064601E000F104064FEA840524
:101FD00001D9A5F12005D6F800C009FA05F82CEAC8
:101FE000080C02FA05F54CEA050CC6F800C04D686D
:101FF000ED0057D5304DAE6946F00106AE61AD69D2
:1020000024F0030605F0010500952C4D06EB050CA8
:10201000DCF80850A6074FEA167809FA08F6B54327
:10202000274EB04202D1002610E03BE0254EB042E0
:1020300001D101260AE0244EB04201D1022605E07A
:10204000224EB04201D1032600E0042606FA08F62B
:102050002E43CCF808604D68DAF80060ED03554671
:1020600001D51E4300E09E432E604D68DBF8006002
:10207000AD035D4601D51E4300E09E432E604D68D2
:10208000DEF80060ED02754601D51E4300E09E4378
:102090002E604D68AD020E4D2E6801D51E4300E046
:1020A0009E432E60641C102CFFF444AFBDE8F88FF3
:1020B0000004014000001110001002400000014027
:1020C00000080140000C01400010014000140140D4
:1020D0000C0401408068084000D0012070470AB11C
:1020E000016170470904FBE7014880687047000000
:1020F0005C000020024881680278114481607047CA
:102100005C000020074810B5016841F01001016033
:10211000032000F093F8002000F006F800F03EF8ED
:10212000002010BD0020024000B5014687B000220B
:10213000192000F063F8192000F054F81348816961
:1021400041F400618161806905A900F40060069096
:10215000684600F015FA00F043FA0D490D4AB0FB4D
:10216000F1F10D48491E0260416040F2E732002162
:10217000C0E90321816000F0FDFB10B1012007B030
:1021800000BD054800F012FCF9E700000010024015
:1021900040420F00002C0140BC0300200F4808B54E
:1021A000816941F001018161816901F001010091C2
:1021B000C16941F08051C161C069002200F08050C6
:1021C00000900F21901E00F019F80548416821F099
:1021D000E06141F00071416008BD00000010024064
:1021E0000000014000F01F020121914040098000E1
:1021F00000F1E020C0F8001170470000F0B40E4B71
:102200001B680C46C3F30223C3F10705042D00D954
:102210000425191D072901D2002300E0DB1E012639
:1022200006FA05F1491E214099409E40761E16404F
:102230003143F0BC01F0D8BA0CED00E0064900F0E3
:10224000070208684FF6FF03184040EA0220034ADD
:1022500010430860704700000CED00E00000FA0534
:1022600010B529A401461DCC86B08DE81D002AA01A
:102270002A4C006804900020012923D002293AD07A
:1022800010291DD161682268D20119D5C1F383429A
:10229000C9031DF8020009D5616804AAC1F34041D1
:1022A000515C1F4AB2FBF1F1484301E01D4948432C
:1022B0006168490204D440005FF00301B0FBF1F013
:1022C00006B010BD226AC2F30121012903D1920791
:1022D00001D5C803F4E7022905D1626A920702D545
:1022E00049F64040ECE70329EAD121688903E7D5A4
:1022F0004FF22440E4E700F073F96168C1F38131E3
:10230000491C4900DAE70000020304050607080932
:102310000A0B0C0D0E0F10100102000000100240FD
:1023200000127A0000093D002DE9F84305460078C7
:10233000354CC00754D0E0690026C00008D4E069DD
:1023400040F08050E061E069012600F0805000908C
:102350002E480168C90512D40168804641F4807195
:102360000160FFF7C1FE074605E000BFFFF7BCFEB6
:10237000C01B642823D8D8F80000C005F6D5206A11
:1023800010F4407021D0A98801F4407181421CD022
:10239000206A1F49012220F440700A6000220A606E
:1023A0002062C00711D0FFF79FFE074641F2883830
:1023B00008E000BFFFF798FEC11B414502D903208A
:1023C000BDE8F883206A8007F4D5206A696820F4A4
:1023D0004070084320621EB1E06920F08050E06147
:1023E0002878800705D56068A96820F44040084334
:1023F00060602878C00605D56068E96820F4800030
:10240000084360600020DBE70010024000700040DD
:10241000400442422DE9F047DFF8548105460E465C
:10242000D8F8000000F00700B0420CD2D8F8001035
:1024300021F007013143C8F80010D8F8000000F07F
:102440000700B0426FD128684A4C810712D5400777
:1024500003D5606840F4E06060602878000703D529
:10246000606840F4605060606068A96820F0F00027
:10247000084360602878C00744D06868012816D0F7
:102480002168022816D0890700294CDA616821F0FA
:10249000030101436160FFF727FE6968074641F2C7
:1024A000883001290ED00229814618D026E0216803
:1024B0008903E9E78901E7E7FFF716FEC11B4945F4
:1024C00001D918E081466068C0F381000128F3D18A
:1024D00018E000BFFFF708FEC11B49450BD8606834
:1024E000C0F381000228F5D10CE000BFFFF7FCFD2E
:1024F000C11B494502D90320BDE8F087606810F090
:102500000C0FF3D1D8F80010404601F00701B1429A
:102510000BD9016821F0070131430160006800F028
:102520000700B04201D00120E6E72878400705D532
:102530006068E96820F4E06008436060287800077C
:1025400006D56068296920F4605040EAC1006060E7
:1025500000F056F86168084AC1F30311515CC840A5
:10256000064908600020FFF7DFFD0020C4E70000F7
:102570000020024000100240289700086800002058
:102580000F2202600C4A536803F003034360536850
:1025900003F0F0038360536803F4E063C3605268A0
:1025A0004FF4E06303EAD20202610448006800F0DD
:1025B0000700086070470000001002400020024041
:1025C0000448054900684968044AC1F30221515C86
:1025D000C84070476800002000100240389700088B
:1025E0000448054900684968044AC1F3C221515CA6
:1025F000C84070476800002000100240389700086B
:1026000012A185B00FC98DE80F0014A0144A00680C
:1026100004905168134801F00C03042B10D0082BD0
:102620000ED1C1F38343C9031DF803000AD55168D5
:1026300004AAC1F34041515C0A4A5043B0FBF1F097
:1026400005B0704708494843FAE700000203040553
:10265000060708090A0B0C0D0E0F101001020000EE
:102660000010024000127A0000093D002DE9F84FE9
:1026700004460078B94DC00748D06868C0F38100AF
:10268000012807D06868C0F38100022809D1686872
:10269000C00306D52868800338D5606800286FD04D
:1026A00034E06068B0F5803F0BD010B1B0F5A02FDA
:1026B00011D0286820F480302860286820F4802019
:1026C00002E0286840F480302860606888B1FFF735
:1026D0000BFD064609E0286840F480202860F0E7FA
:1026E000FFF702FD801B642875D828688003F7D5A2
:1026F0000CE0FFF7F9FC064605E000BFFFF7F4FC2D
:10270000801B6428F0D828688003F7D42078944E82
:1027100080074FF001094FF000083BD5686810F0C2
:102720000C0F07D06868C0F38100022809D16868DF
:10273000C00306D42868800714D5206901281FD15A
:1027400010E02069B0B1C6F80090FFF7CDFC074655
:1027500005E000BFFFF7C8FCC01B0228C4D82868EA
:102760008007F7D52868616920F0F80040EAC100C9
:1027700028600FE0C6F80080FFF7B6FC074606E0C9
:10278000E9E000BFFFF7B0FCC01B022823D828688F
:102790008007F7D4207800072CD57248A169D9B1F9
:1027A000C0F80090FFF7A0FC074604E0FFF79CFC90
:1027B000C01B02280FD8686A8007F7D56A484FF413
:1027C000FA510068B0FBF1F0009000BF0098411E84
:1027D0000091FAD20EE080E0C0F80080FFF784FCA0
:1027E000074604E0FFF780FCC01B022875D8686A22
:1027F0008007F7D42078400760D5E8690027C0003B
:1028000008D4E86940F08050E861E869012700F0E9
:102810008050009055480168C90513D4016883466B
:1028200041F480710160FFF75FFC824606E000BF63
:10283000FFF75AFCA0EB0A0064284ED8DBF8000032
:10284000C005F5D5E06801280AD008B1052813D0E5
:10285000286A20F001002862286A20F0040002E0C3
:10286000286A40F001002862E06841F2883B98B194
:10287000FFF73AFC82460BE0286A40F00400286229
:10288000EEE700BFFFF730FCA0EB0A0159455AD82C
:10289000286A8007F6D50CE0FFF726FC824605E0A3
:1028A000FFF722FCA0EB0A0159454CD8286A8007A3
:1028B000F6D41FB1E86920F08050E861E06988B380
:1028C0006968C1F38101022945D00228C6F86080F9
:1028D00004D0FFF709FC044638E034E0FFF704FCBD
:1028E000074604E0FFF700FCC01B02282BD828682D
:1028F0008001F7D4206AB0F5803F05D16868A168EF
:1029000020F4003008436860D4E90801084369688E
:1029100021F4741108436860C6F86090FFF7E4FB87
:10292000044606E015E000BFFFF7DEFB001B0228AF
:1029300009D828688001F7D50BE000BFFFF7D4FB6A
:10294000001B022802D90320BDE8F88F2868800107
:10295000F4D40020F8E70120F6E700000010024060
:1029600000004242800442426800002000700040A3
:102970007047704710B5040003D094F83D0010B1C3
:1029800007E0012010BD002084F83C00204600F044
:102990000CF8022084F83D00211D206801F0E4FCC1
:1029A000012084F83D00002010BD70470168CA680E
:1029B00042F00102CA600068016841F00101016053
:1029C00000207047704770B50446006801694FF0F9
:1029D0000005C943890715D4C168C943890711D4C3
:1029E000E91E016101202077206880698007204668
:1029F00002D0FFF7E7FF04E000F098F8204600F06F
:102A000096F8257720680169C943490717D4C1683A
:102A1000C943490713D46FF00401016102202077F4
:102A20002068806910F4407F204602D0FFF7CAFF7B
:102A300004E000F07BF8204600F079F82577206864
:102A40000169C943090716D4C168C943090712D4EB
:102A50006FF008010161042020772068C0698007B9
:102A6000204602D0FFF7AEFF04E000F05FF82046FA
:102A700000F05DF8257720680169C943C90617D4BD
:102A8000C168C943C90613D46FF010010161082061
:102A900020772068C06910F4407F204602D0FFF7FD
:102AA00091FF04E000F042F8204600F040F825775E
:102AB00020680169C943C90708D1C168C943C9076A
:102AC00004D1891E0161204600F032F820680169B6
:102AD000C943090609D4C168C943090605D46FF082
:102AE000800101612046FFF743FF20680169C94367
:102AF000490609D4C168C943490605D46FF04001AD
:102B00000161204600F01EF820680169C94389066A
:102B10000BD4C168C943890607D46FF02001016155
:102B20002046BDE87040FFF724BF70BD7047704776
:102B300000680349884201D1FFF7DCBA7047000002
:102B4000002C01407047704770B502680446106859
:102B5000D168536910F00F0F50D003F0010501F454
:102B6000907635435DD0C20705D0CA0503D5E26B28
:102B700042F00102E263420705D5DA0703D0E26BB7
:102B800042F00202E263820705D5DA0703D0E26B66
:102B900042F00402E263020705D5DA0703D0E26BD4
:102BA00042F00802E263E26B002A33D0800604D5CB
:102BB000880602D5204601F023FC20684069E16BBD
:102BC000C0F38010090700D428B3204601F00AFCA6
:102BD0002068416949061AD5416921F040014161E7
:102BE000606BA0B11B494163606BFFF727F80028B9
:102BF00010D0606B416BBDE870400847830610D56C
:102C00008B060ED52046BDE8704001F0F9BB20468A
:102C1000FFF799FF70BD2046FFF795FF0020E063A6
:102C200070BD030606D50B0604D52046BDE87040EE
:102C300001F0EABC4006F3D54806F1D5D16820463C
:102C400021F04001D160202184F8391000F075F99D
:102C500070BD0000D543000870B5040004D094F89E
:102C60003900002510B106E0012070BD84F838500D
:102C7000204600F023F8242084F839002068C16839
:102C800021F40051C160204601F006FC2068016972
:102C900021F4904101612068416921F02A014161DC
:102CA0002068C16841F40051C160E563202084F8C8
:102CB000390084F83A00002070BD000070B586B07D
:102CC000002400940194029403942E4E03682E492C
:102CD000022003222D4DB34226D18B6943F4804359
:102CE0008B618B6903F4804304938B6943F0040385
:102CF0008B618969039201F0040104910102CDE91D
:102D0000001069462846FFF707F92815CDE90004A9
:102D1000694628460294FFF7FFF800220621252085
:102D2000FFF76CFA252028E0194EB34227D1CB6972
:102D300043F40033CB61CB6903F4003304938B6914
:102D400043F004038B618969039201F0040104914B
:102D50000421CDE9001069462846FFF7DDF8082078
:102D6000CDE90004694628460294FFF7D5F8002211
:102D700006212620FFF742FA2620FFF733FA06B095
:102D800070BD000000380140001002400008014002
:102D90000044004090F83A30202B22D1F9B1F2B132
:102DA00090F83830012B1CD081628285C2850021C9
:102DB000C163222280F83A2080F838100168CA687E
:102DC00042F48072CA6001684A6942F001024A61B5
:102DD0000068C16841F02001C160002070470120F7
:102DE000704702207047000070B506460068204A10
:102DF000002501211F4C90421BD1606C1E4A401CD3
:102E00006064904203D1A2F18000606404E010F895
:102E1000010C0A2800D1E17101223046616CFFF7F4
:102E2000B9FF6D1CEDB26072052D01D20028F3D1FF
:102E300070BD124A9042FBD1A06C0F4A401C8032F8
:102E4000A064904202D10C48A06404E010F8010C88
:102E50000A2800D1217201223046A16CFFF79AFFA7
:102E60006D1CEDB2A072052DE2D20028F3D170BD29
:102E70000038014000000020BC0100200044004058
:102E80002DE9F843044690F839001F4616460D46D2
:102E9000202850D1A5B19EB194F8380001284AD01D
:102EA000012084F838004FF00008C4F83C8021204D
:102EB00084F83900FFF718F9A6848146E68426E0F5
:102EC0000120BDE8F883E08C401EE084A0684B46FA
:102ED000B0F5805F4FF000024FF080012046009770
:102EE00003D001F0C2FBE8B90DE001F0BEFBC8B9A8
:102EF00028882168C0F308004860206908B16D1C6B
:102F000005E0AD1C03E0216815F8010B4860E08C7A
:102F10000028D8D14B46002240212046009701F0DE
:102F2000A4FB08B10320CCE7202084F8390084F802
:102F300038800020C5E70220C3E77047FEE70000A5
:102F400070B505460824134E18E000BFFFF7C7F818
:102F500000F09EF8280601D5012200E00022802121
:102F60003046FFF7BCF86806050E00F091F8012224
:102F700040213046FFF7B3F800F08AF8641EE4B24F
:102F80004FF000024FF040013046DFD2BDE8704004
:102F9000FFF7A5B8000C014010B5154C01228021A7
:102FA0002046FFF79CF8012240212046FFF797F8C2
:102FB00000F06EF880212046FFF78CF800280CD036
:102FC000002280212046FFF78AF800F061F8802176
:102FD0002046FFF77FF808B1002010BD00228021B5
:102FE0002046FFF77CF800F053F8012010BD0000E8
:102FF000000C014010B50F4C002240212046FFF785
:103000006EF800F045F8002280212046FFF767F8AF
:1030100000F03EF8012240212046FFF760F800F062
:1030200037F8012280212046FFF759F8BDE810400B
:1030300000F02EB8000C014010B5144C00224021C5
:103040002046FFF74CF800F023F8012280212046AB
:10305000FFF745F800F01CF8012240212046FFF759
:103060003EF800F015F880212046FFF733F80028DD
:103070004FF000024FF04001204603D0FFF72FF839
:10308000002010BDFFF72BF8012010BD000C0140FF
:1030900008B507200090401E0090FCD108BD00003C
:1030A0002DE9FE43DFF87C90DDE90A65B9F902807D
:1030B000871801EB030C7F1EA8EB0104ACF1010C97
:1030C000002C05DD1B1B002B2ADD04FB06554146A9
:1030D000B9F906804C46ACEB080CBCF1000F03DDDF
:1030E000A3EB0C03002B1BDDB4F904C0A7EB0C070A
:1030F000002F00DDD21BB9F900400027844208DD13
:10310000241A24F007073844121B05EBE40504F0E9
:103110000707002A04DDCDE90065029700F004F8F6
:10312000BDE8FE83EC1C00202DE9F84F1E46DDE9CA
:103130000A951746884683460024DDF830A009E04A
:1031400004EB080153462A4658460097FDF728FE2F
:103150004D44641CB442F3DBBDE8F88F2DE9F04F19
:103160008DB00CA906A8CDE900010BAB07AA04A9F4
:1031700002A802F0A5FCBDF818006F4CC0057DD573
:103180000798FDF707FB6FF01D052946FDF757F976
:103190000746E0600898FDF7FDFA2946FDF74FF96C
:1031A000804620610998FDF7F5FA2946FDF747F9B1
:1031B000064660610A98FDF7EDFA2946FDF73FF9EA
:1031C0000546A06101213846FDF739F93146FDF782
:1031D000C6F806464FF0404739464046FDF7BFF86F
:1031E0002946FDF7BCF83146FDF761F8FDF739FBDC
:1031F00002F006F8DFF844914FF0663842464B463D
:10320000FDF7D0F9FDF740FBE0616069012105465B
:10321000FDF715F982462946FDF7A1F80546206914
:1032200039460746FDF79BF83946FDF798F82946D9
:10323000FDF78FF84FF07E51FDF739F8FDF711FBE0
:1032400005460E460121E068FDF7F9F83946FDF71D
:1032500086F807465046A169FDF781F83946FDF723
:1032600026F8FDF7FEFA2A46334602F011FA4246E6
:103270004B46FDF797F9FDF707FB00E040E02062C1
:10328000A16901910846FDF76AF861690746084699
:103290000091FDF764F8216906468B465846FDF714
:1032A0005EF8E16805468A465046FDF758F829461B
:1032B000FCF7FDFF3146FDF74CF83946FDF749F8BC
:1032C000FDF7CFFA05460E4650460199FDF747F83F
:1032D000074658460099FDF742F83946FCF7E7FFE4
:1032E0000121FDF7ACF8FDF7BCFA2A46334602F09F
:1032F000CFF942464B46FDF755F9FDF7C5FA606236
:10330000BDF9180010F0700F08D0BDF80810E1806A
:10331000BDF80A102181BDF80C106181000708D5A5
:10332000BDF810002080BDF812006080BDF81400C8
:10333000A0800DB0BDE8F08F0001002066A64C40D3
:1033400070B503F099FB08B1002070BD2FA001F00B
:10335000D9F9782004F086F808B135A04EE03FA0F6
:1033600001F0D0F9782003F0B9FA08B143A045E0A4
:103370004EA001F0C7F9142004F034F808B154A0AD
:103380003CE05CA001F0BEF902F090FB08B163A044
:1033900034E071A001F0B6F97C48044603F0ECF982
:1033A0000546E01C03F0E8F945EAC005A01D03F05E
:1033B000E3F945EA801080B202F026FD08B174A05E
:1033C0001CE07FA001F09EF940F2731002F046FA73
:1033D00008B185A012E090A001F094F9142002F049
:1033E0007BFC08B195A009E09FA001F08BF904F0E7
:1033F000FFFA012003F01CFF18B1A4A001F082F92C
:10340000A2E7ADA001F07EF9012070BD6D707520BE
:10341000696E697469616C697A6174696F6E206341
:103420006F6D706C6574652E2E2E2E2E2E0A000088
:103430006D70755F7365745F73656E736F72206313
:103440006F6D65206163726F7373206572726F7246
:10345000202E2E2E2E2E2E0A000000006D70755F7D
:103460007365745F73656E736F7220636F6D706CDC
:10347000657465202E2E2E2E2E2E0A006D70755F1F
:10348000636F6E6669677572655F6669666F2063F4
:103490006F6D65206163726F7373206572726F72F6
:1034A000202E2E2E2E2E2E0A000000006D70755F2D
:1034B000636F6E6669677572655F6669666F2063C4
:1034C0006F6D706C657465202E2E2E2E2E2E0A00C8
:1034D0006D70755F7365745F73616D706C655F723D
:1034E000617465206572726F72202E2E2E2E2E2E24
:1034F0000A0000006D70755F7365745F73616D70B5
:103500006C655F7261746520636F6D706C65746566
:10351000202E2E2E2E2E2E0A00000000646D705FCD
:103520006C6F61645F6D6F74696F6E5F64726976F2
:1035300065725F6669726D7761726520636F6D6534
:10354000206163726F7373206572726F72202E2E0A
:103550002E2E2E2E0A000000646D705F6C6F616469
:103560005F6D6F74696F6E5F6472697665725F66B6
:1035700069726D7761726520636F6D706C657465DB
:10358000202E2E2E2E2E2E0A0000000028010020B4
:10359000646D705F7365745F6F7269656E7461747A
:1035A000696F6E20636F6D65206163726F73732046
:1035B0006572726F72202E2E2E2E2E2E0A000000A3
:1035C000646D705F7365745F6F7269656E7461744A
:1035D000696F6E20636F6D706C657465202E2E2E82
:1035E0002E2E2E0A00000000646D705F656E616211
:1035F0006C655F6665617475726520636F6D6520CB
:103600006163726F7373206572726F72202E2E2E3B
:103610002E2E2E0A00000000646D705F656E6162E0
:103620006C655F6665617475726520636F6D706C43
:10363000657465202E2E2E2E2E2E0A00646D705F6E
:103640007365745F6669666F5F7261746520636F2E
:103650006D65206163726F7373206572726F722083
:103660002E2E2E2E2E2E0A00646D705F7365745FF1
:103670006669666F5F7261746520636F6D706C65FB
:103680007465202E2E2E2E2E2E0A00006D70755F72
:103690007365745F646D705F737461746520636FCC
:1036A0006D65206163726F7373206572726F722033
:1036B0002E2E2E2E2E2E0A006D70755F7365745F90
:1036C000646D705F737461746520636F6D706C6599
:1036D0007465202E2E2E2E2E2E0A00003EB50021BF
:1036E0000D48009101910B4A029102600124C0E94A
:1036F000021441614FF460220461C2614160FEF72F
:1037000041F905200094CDE9014069460248FEF7E1
:10371000A3F83EBD002401403C0200202DE9F04307
:1037200085B000242C48009401940294039481698C
:1037300041F020018161816901F0200104918169DA
:1037400041F004018161816901F004010491816902
:1037500041F0080181618069DFF8808000F0080095
:1037600004900122C0214046FEF7B9FCDFF87090BA
:10377000012203214846FEF7B2FC4FF44C670022B9
:1037800039464846FEF7ABFC48F2301001258DE87B
:10379000310069464046FEF7BFFBC0200226CDE956
:1037A0000005CDE9024669464046FEF7B5FB032019
:1037B000CDE90005CDE9024669464846FEF7ACFB77
:1037C00001AA1120009782E8510069464846FEF799
:1037D000A3FB05B0BDE8F0830010024000080140E3
:1037E000000C0140FEE770470907090E002806DAC1
:1037F00000F00F0000F1E02080F8141D704700F188
:10380000E02080F8001470472DE9F041154F05467F
:1038100000244FF400684FF4806600223146384699
:10382000FEF75DFC280601D5012200E0002241469A
:103830003846FEF754FC6806050E0122314638462C
:10384000FEF74DFC641CE4B2082CE6D3002231469E
:103850003846FEF744FC31463846BDE8F0410122C7
:10386000FEF73DBC000C014070B501220B4D9402E7
:1038700021462846FEF733FC0122D602314628466F
:10388000FEF72DFC002231462846FEF728FC214693
:103890002846BDE870400022FEF721BC000C014024
:1038A00070B50D4D4FF48064002221462846FEF786
:1038B00016FC6600002231462846FEF710FC012265
:1038C00031462846FEF70BFC21462846BDE87040ED
:1038D0000122FEF704BC0000000C014010B5094CA9
:1038E000607904F0EDF8A07900280AD060794008EA
:1038F000607101D108206071BDE810406420FEF7BE
:10390000F9BA10BD000000202DE9F8431F46DDF88C
:1039100020900D46064680281FD2402D1DD2B0189B
:10392000802802D3C6F1800082B2E819402802D371
:10393000C5F1400087B2002406EB02080BE028190D
:1039400083B281B21FFA88F23046CDF8009000F0C1
:1039500006F8641CE4B2BC42F1D9BDE8F8832DE955
:10396000FC4F1D4614460E460746802800D37F278D
:10397000802C00D37F24402E00D33F26402D00D33F
:103980003F25A74201D2E01B00E0381B0FFA80F967
:10399000AE4201D2A81B00E0701B0FFA80FA4FF074
:1039A000FF30A74201D2012100E001460191AE4261
:1039B00000D2012083464846D14501DCCAF100000F
:1039C00000EBD07040F34F08B9F1000F23D0BAF1EB
:1039D000000F35D0C9F100000090314638460B9AEF
:1039E00000F042F8A74201D1AE4227D000994046EC
:1039F000884506DDA8EB0A010FFA81F801993944E0
:103A00008FB25045E9DA08EB09000FFA80F806EBAF
:103A10000B0086B2E1E7B54202D22846354686B2AF
:103A2000BC4200D2A7B234B206E0A1B238460B9A2B
:103A300000F01AF8641C24B2AC42F6DDBDE8FC8F3D
:103A4000B54200D2AEB2BC4202D220463C4687B25A
:103A50003DB206E0A8B231460B9A00F005F86D1CA5
:103A60002DB2A542F6DDE9E770B5802813D24029D2
:103A700011D20B4B012401F007051E79AC40094B14
:103A8000C90800EBC1100EB132B101E0012A03D028
:103A9000195CA143195470BD195C2143FAE7000079
:103AA000CE0000200C1D002028B1FF224FF48061C1
:103AB0000248FCF7D6BB0022F8E700000C1D0020EE
:103AC00070B50E4D002400BF04F1B000C0B200215B
:103AD00000F016F80021084600F012F8002110202E
:103AE00000F00EF805EBC4104022802100F01AF817
:103AF000641CE4B2082CE7D370BD00000C1D00204C
:103B000070B50D460446FFF7AFFE7820FFF77CFE48
:103B10002846FFF779FE2046FFF776FEBDE87040A5
:103B2000FFF7BEBE70B514460D460646FFF79CFE75
:103B30007820FFF769FE2046FFF766FE002404E0C8
:103B4000305DFFF761FE641CA4B2AC42F8D3BDE85F
:103B50007040FFF7A5BE000010B50021AE20FFF7B2
:103B6000CFFF00212020FFF7CBFF00211020FFF71F
:103B7000C7FF0021B020FFF7C3FF0021C820FFF7D7
:103B8000BFFF00210846FFF7BBFF00211020FFF711
:103B9000B7FF00214020FFF7B3FF00218120FFF78E
:103BA000AFFF0021FF20FFF7ABFF0021A120FFF7AF
:103BB000A7FF0021A620FFF7A3FF0021A820FFF701
:103BC0009FFF00213F20FFF79BFF0021A420FFF76C
:103BD00097FF0021D320FFF793FF00210846FFF74E
:103BE0008FFF0021D520FFF78BFF0021F020FFF78A
:103BF00087FF0021D920FFF783FF00212220FFF754
:103C00007FFF0021DA20FFF77BFF00211220FFF762
:103C100077FF0021DB20FFF773FF00212020FFF753
:103C20006FFF00218D20FFF76BFF00211420FFF7AD
:103C300067FF0021AF20FFF763FF0020FFF734FF8D
:103C4000FFF73EFF034800210180418001214171BF
:103C500010BD0000CE000020B8B09448FDF798FDDC
:103C600092491422B0319148FDF762FF0027FFF717
:103C700067FB8F4D286110B98EA000F043FD4FF017
:103C8000000AE879002843D0904991A000F03AFD5D
:103C90008E4A94A102F5EC7000F044FDDFF80C822E
:103CA000002634460DF17C0908F1D8080DE000BF6C
:103CB00018F8040009F80600761C0A2804D16421CB
:103CC0001FA8FCF7D5FA0026641C7848D830FCF70A
:103CD000DAFA801EA042EBD87C48FCF7D4FA296AB5
:103CE0001FAA431871489B1E7FA1D8302B6200F099
:103CF00019FD64211FA8FCF7BBFA80217348FCF76B
:103D0000B7FA7248686400F59871886285F807A070
:103D1000287A88B165497AA0803900F0F3FC6348BD
:103D200080218038FCF7A4FA6048803800F1F00167
:103D3000A864886285F808A0687A30B15B480122DF
:103D40003030696CFFF726F86872286908B1FFF710
:103D500005FAFEF7C9F9296B3944884273D3A86B79
:103D6000002870D0FEF7C0F907462869002854D013
:103D7000E86B40B366480068FCF773FD8146654810
:103D80008B460068FCF76DFD064663488846006870
:103D9000FCF767FD00900C46A889FCF709FD4FF081
:103DA00066325E4BFCF7FEFB6FF00B02FCF7DBFCB0
:103DB0000DF1040C0B468CE8500B024658A106A8E6
:103DC00000F0B0FC1BE060485C4B5D4A5D49B0F917
:103DD00000000DF1040CB3F90030B2F90020B1F984
:103DE00000108CE80F0059485AA1B0F9000000906B
:103DF0005748AA89B0F9003006A800F093FC06A83D
:103E0000FCF741FA014606A801F0D0F906A935A051
:103E100000F078FC286C401C2864012003F0A8FB0B
:103E2000E87808B1442000E05520A97809B1442180
:103E300000E055216A780AB1442200E055222B782F
:103E400013B1442301E02DE05523CDE90410CDE961
:103E500002326879010701D5312100E030214207A3
:103E600001D5312200E03022CDE90021810701D5C2
:103E7000312300E03023C00701D0312200E030229E
:103E80003BA106A800F04EFC06A8FCF7FCF9014691
:103E900006A801F08BF906A912A000F033FC286CEB
:103EA000401C2864012003F063FBEAE63C0200208A
:103EB000000000204D50553630353020696E697451
:103EC000206572726F72210A000000003C01002020
:103ED0007278315F7265635F64617461203D202593
:103EE00073000000257300000A52656365697665FA
:103EF0003A0A25730A53697A653A2564000000007E
:103F00007278325F62756666203D2025730000007E
:103F100024010020200100201C01002066660A40C8
:103F2000374D522C252E31662C252E31662C252E10
:103F300031662C252E31660A000000000A0100209F
:103F400008010020060100200401002002010020D9
:103F500000010020374D592C25642C25642C256444
:103F60002C25642C25642C25642C25640A00000073
:103F7000374D424425632563256325632563256307
:103F8000256325630A0000009AB0FDF78FFB6F4898
:103F9000FDF7AAFBFDF7BBFA002205216CA0FDF797
:103FA0004FFB1422282170A0FDF74AFB28222D2167
:103FB0006EA0FDF745FBFDF7A5FB4FF47A70FDF70A
:103FC00099FF032701266A4C4FF002084FF49679B7
:103FD000002500BFFDF79BFA2078012808D0607803
:103FE000012805D0A078012802D0E078012806D168
:103FF000A06920B95F49684600F094FBA66120786B
:10400000A1690840E16981B10021084224D02079EA
:1040100068B1012803D002280FD0032813D05549D6
:10402000684600F07FFB257113E00121EDE752495E
:10403000684600F077FB27710BE05049684600F0B6
:1040400071FB267105E04E49684600F06BFB84F871
:104050000480484603F08CFA6078A1690840E16961
:1040600061B10021084226D0207948B101280DD045
:10407000022812D0032816D0424915E00121F1E7A9
:104080003E49684600F04EFB267111E03C49684607
:1040900000F048FB84F804800AE03749684600F0E5
:1040A00041FB277104E03349684600F03BFB257172
:1040B000484603F05DFAA078A1690840E169A9B318
:1040C0000021084203D04846E66103F051FAE07847
:1040D000A16908420ED02749684600F023FBE5613C
:1040E00025716561642128482562FCF7C1F8A56245
:1040F000E5626562D4E90610084208D0207918B15B
:10410000012816D0022818D06846FCF7FFFE4FF0B1
:104110000002A0691146A0B16846FDF791FA00BF00
:10412000FDF7F0FA012003F023FA53E7FFE701213E
:10413000C7E76846FCF7DCFFE9E76846FDF7F2F8F9
:10414000E5E71248FDF784FAEAE70000DC92000890
:10415000B5E7D7D3CFB5CDB3D7DBBACFBFCEB3CCCE
:10416000C9E8BCC6000000007878787878787800D4
:1041700000000020E8AA0008D8AB000838AB00080F
:1041800088AB000898AA00081403002018970008BC
:10419000FF240025204603F093FC6420FDF7AAFECF
:1041A000E0436D1CC4B20A2DF4DB00BFFFF796FBA1
:1041B000012003F0DDF9F9E70126314D314C4FF4D0
:1041C00080784FF40049002710212846FDF782FF30
:1041D00078B120212846FDF77DFFD8B14146284619
:1041E000FDF778FF30B349462846FDF773FF88B3E3
:1041F00041E0267002E000BF03F0BAF91021284622
:10420000FDF768FF00284FF00A00F5D003F0B0F981
:10421000277030E0667001E003F0AAF920212846FB
:10422000FDF758FF00284FF00A00F5D003F0A0F981
:10423000677020E0A67001E003F09AF94146284635
:10424000FDF748FF00284FF00A00F5D003F090F981
:10425000A77010E0FFE7E67002E000BF03F088F906
:1042600049462846FDF736FF00284FF00A00F5D0F2
:1042700003F07EF9E770012003F07AF9A4E700006B
:10428000000801400000002010B5502080F3118884
:10429000BFF34F8FBFF36F8F03F036FE18B10449A1
:1042A0004FF080500860002080F3118810BD00009E
:1042B00004ED00E030B593B028216846FBF7D8FF45
:1042C00014210AA8FBF7D4FF002401200F941094B6
:1042D0001194010412948DE8130004904FF4E0103F
:1042E000CDE90810022507956846FEF7BFF90F20B3
:1042F000CDE90A056802CDE90C4002210AA80E9416
:10430000FEF788F8A80311900F950FA8FEF70CF898
:1043100013B030BD0D48016841F0010101604168F2
:104320000B4A1140416001680A4A1140016001686E
:1043300021F480210160416821F4FE0141604FF4C5
:104340001F0181600449C0030860704700100240EB
:104350000000FFF8FFFFF6FE08ED00E00148FEF761
:1043600032BB0000BC030020F0B50268164B174CAE
:10437000174D4FF08047984205D0B84203D0A04275
:1043800001D0A84203D122F070064A683243984215
:1043900005D0B84203D0A04201D0A84203D122F4F4
:1043A0004074CA68224322F080044A6922430260B2
:1043B0008A68C2620A688262984201D1096901630F
:1043C00001214161F0BD0000002C014000040040CB
:1043D0000008004010B5406A0021C185C184FEF785
:1043E000B2FB10BD0168CA6822F49072CA6001680D
:1043F0004A6922F001024A61202180F83A10704790
:1044000010B590F83A10222901D0022010BD816821
:10441000B1F5805F11D00169002901681FD049689A
:1044200001F07F03816A4A1C82620B70C18D491EB4
:104430000904090CC18518D02BE00269816A002AA1
:104440000268526805D0D2B20A80816A491C816232
:10445000ECE7C2F308020A80816A891CF7E74A6820
:10446000816A4B1C83620A70E0E70168CA6822F027
:104470002002CA600168CA6822F48072CA600168BA
:104480004A6922F001024A61202180F83A10FEF7C1
:10449000ABFC002010BD00002DE9F041044600688F
:1044A0000169E26821F44051114301612169A0686A
:1044B0000843616908432168CA6841F20C639A4362
:1044C0000243CA6020684169A26921F44071114326
:1044D00041614C4920686425322688423CD1FEF770
:1044E0007FF800EBC00101EB001061688900B0FBB0
:1044F000F1F7FEF775F800EBC00101EB0010616801
:10450000B0468900B0FBF1F0B0FBF5F06FF0180198
:10451000484307EB800106EB0110B0FBF5F000F01B
:10452000F006FEF75DF800EBC00101EB00106168DA
:104530008900B0FBF1F0B0FBF5F006EB0016FEF7DA
:104540004FF800EBC00101EB001061688900B0FB7F
:10455000F1F7FEF745F83BE0FEF732F800EBC0015B
:1045600001EB001061688900B0FBF1F7FEF728F855
:1045700000EBC00101EB00106168B0468900B0FBA0
:10458000F1F0B0FBF5F06FF01801484307EB800144
:1045900006EB0110B0FBF5F000F0F006FEF710F8A6
:1045A00000EBC00101EB001061688900B0FBF1F085
:1045B000B0FBF5F006EB0016FEF702F800EBC001C9
:1045C00001EB001061688900B0FBF1F7FDF7F8FF1F
:1045D00000EBC00101EB001061688900B0FBF1F055
:1045E000B0FBF5F06FF01801484307EB800108EBD2
:1045F0000110B0FBF5F0216800F00F003044886036
:10460000BDE8F0810038014090F83910212901D02F
:10461000022070478168B1F5805F016A0BD04A1CA7
:104620000262026809785160C18C491E0904090CB4
:10463000C1840ED017E009880268C1F308015160F7
:1046400001690029016A02D0491C0162ECE7891C5A
:10465000FBE70168CA6822F08002CA600068C1688E
:1046600041F04001C160002070472DE9F0419846BB
:1046700017460E460446069D1DE0681C1BD02DB152
:10468000FDF732FDA0EB0800A84214D92068C168EC
:1046900021F4D071C1602068416921F001014161BC
:1046A000202084F8390084F83A00002084F838008B
:1046B0000320BDE8F0812068006836EA000004D0DD
:1046C0000020B842D9D00020F3E70120F9E700002C
:1046D0000148FEF739BA00006C0200200148FEF7DD
:1046E00033BA0000AC020020FEE7000001498882D6
:1046F00000207047EC1C00200149C8820020704750
:10470000EC1C00200FB4054B10B503A9044A029815
:1047100000F070F910BC5DF814FB00005161000856
:10472000340100200FB4084B10B504A902AA039865
:1047300000F060F9044602A9002000F0F2FC2046D7
:1047400010BC5DF814FB000023510008490050EA3A
:10475000C12018BF04204A0D18BF40F0010040F2EC
:10476000FF72B2EB515F08BF40F00200012808BFA2
:10477000052070472DE9F0414F1E00EBC7010446AC
:10478000D1E9000115461E4637F006020DD02A4633
:104790003346FBF707FF7F1E04EBC703D3E9002373
:1047A000FBF759FE37F00602F1D1022F25D0042F76
:1047B00013D0062F18BFBDE8F0812A463346FBF719
:1047C000F1FED4E90A23FBF746FE2A463346FBF7FF
:1047D000E9FED4E90823FBF73EFE2A463346FBF701
:1047E000E1FED4E90623FBF736FE2A463346FBF703
:1047F000D9FED4E90423FBF72EFE2A463346FBF705
:10480000D1FED4E90223FBF726FE2A463346FBF706
:10481000C9FED4E90023BDE8F041FBF71CBE01222C
:10482000FBF7A1BFFBF717BE002213461046114647
:10483000FBF72ABF024A00201107FBF794BF0000D4
:1048400001FDFFFF02E008C8121F08C1002AFAD1CB
:1048500070477047002001E001C1121F002AFBD100
:1048600070470000014908607047000038010020CF
:104870002DE9FF5F82B00021DDE90430020DDDF893
:1048800040B0034318D044F61050A2F2FF32424326
:104890001514119801281FD0A5EB0B00401C5FEAEE
:1048A000000A4FF000064E4FDFF83891B0465046F0
:1048B00015D5CAF1000413E0119801244AA3012878
:1048C00001D16FEA0B010298119AC0E90031C0E9E9
:1048D000024206B0BDE8F09FCBF10000DFE70446DE
:1048E0000021404A491842EB0450CDE9001012E083
:1048F000E00707D032463B4640464946FBF752FEAA
:104900008046894632463B4610461946FBF74AFE2A
:1049100006460F466410002CEAD1DDE90401DDE90A
:104920000023BAF1000F06DAFBF73CFE42464B4685
:10493000FBF738FE05E0FBF7A7FE42464B46FBF7C8
:10494000A3FE04460E460022284BFCF7CDF803D800
:104950004FF0FF30014607E00022254B204631464C
:10496000FBF779FDFCF7A8F8102409E0002C0ADB1E
:104970000A220023FBF7BAFF039B30321A55641E4C
:1049800050EA0102F2D1641C039AC4F111031444E9
:10499000119A012A03D0012208430DD10AE00843ED
:1049A00004D000204FF0110B119072E7A3EB0B0520
:1049B0006D1E0DE05B4504DD4FF0000205F10105C1
:1049C00004E003DA4FF00002A5F10105002AECD063
:1049D00002981199C0E90231C0E9004579E7000069
:1049E000000014400000F03F300000000000F043E1
:1049F0000000E03F2DE9FF4F95B09B4689460646F3
:104A000000250FE2252877D100242746F84A012106
:104A1000059400E0044316F8013F203B01FA03F03F
:104A20001042F7D130782A2811D06FF02F03307858
:104A3000A0F13002092A16D8059A44F0020402EBCC
:104A4000820203EB42021044761C0590EFE759F80E
:104A5000042B0592002A03DA504244F400540590D6
:104A600044F00204761C30782E2816D116F8010F77
:104A700044F004042A280DD06FF02F023078A0F102
:104A80003003092B09D807EB870302EB4303C71850
:104A9000761CF3E759F8047B761C30786C280FD02D
:104AA00006DC4C2817D068280DD06A2814D104E001
:104AB000742810D07A280FD10DE044F400140AE0D5
:104AC00044F4801401E044F440147278824202D12C
:104AD00004F58014761C761C307866280BD013DC25
:104AE000582877D009DC002875D04528F6D046280C
:104AF000F4D047281AD19DE118E0632835D0642806
:104B000079D0652812D195E1702873D008DC672828
:104B1000F1D069286FD06E280DD06F2806D1B5E08E
:104B200073282CD0752875D0782874D05A461799D8
:104B300090476D1C75E1C4F30250022809D0032888
:104B40000DD0D9F8001004280DD00D6009F104092A
:104B500067E1D9F80010EA17C1E90052F6E7D9F881
:104B600000100D80F2E70D70F0E719F8041B8DF8C6
:104B7000001000208DF80100EA46012003E059F8FA
:104B800004AB4FF0FF3061074FF0000102D40DE09D
:104B900008F101018846B9420FDA8045F8DB1AF8BE
:104BA00008100029F4D108E008F10101884681428B
:104BB000FADB1AF808100029F6D105985B46A0EB3D
:104BC000080721463846179A00F094FA284400EB6B
:104BD000080507E04DE029E10DE01AF8010B5A46FF
:104BE00017999047B8F10108F7D25B46214638463D
:104BF000179A13E142E00A220092C4F302524FF0E6
:104C0000000A022A08D059F804CB032A4FEAEC71B3
:104C10000AD00DE029E02AE009F1070121F007029E
:104C2000F2E802C1914609E00FFA8CFC4FEAEC7100
:104C3000042A03D14FFA8CFC4FEAEC71002907DA01
:104C40000A460021DCF1000C61EB02012D2202E09A
:104C5000220504D52B228DF80420012203E0E2076F
:104C600001D02022F7E7904659E00A2102E0102205
:104C70000DE010214FF0000A00910BE010224FF0E0
:104C8000000A44F004040827009203E008224FF0D1
:104C9000000A0092C4F30252022A05D059F804CB4C
:104CA0000021032A08D009E009F1070121F00702D9
:104CB000F2E802C1914605E01FFA8CFC042A01D1FA
:104CC0000CF0FF0C4FF00008220728D5702806D002
:104CD000009B83F0100353EA0A0305D00EE0402244
:104CE0008DF80420012208E05CEA010206D030229F
:104CF0008DF804208DF8050002229046009B83F079
:104D0000080353EA0A030AD15CEA010201D16207EF
:104D100005D530228DF804204FF001087F1E582859
:104D200004D034A003900EA802900DE036A0F9E75D
:104D300053466046009AFBF7D9FD84460398825C8F
:104D40000298401E029002705CEA0100F0D10298C5
:104D500006A9081A00F1200A600702D524F480345D
:104D600000E00127574502DDA7EB0A0000E0002024
:104D700000EB0A01009005984144401A0590E003B9
:104D800006D45B462146179A059800F0B3F905440E
:104D9000002706E001A85A46C05D179990476D1C90
:104DA0007F1C4745F6DBE0030CD55B462146179A8E
:104DB000059800F09FF9054404E030205A46179901
:104DC00090476D1C0099481E00900029F5DC08E012
:104DD000029802995A460078491C02911799904707
:104DE0006D1CBAF10001AAF1010AF1DC65E10000D5
:104DF00009280100303132333435363738396162B1
:104E00006364656600000000303132333435363774
:104E100038394142434445460000000000F058F94B
:104E20000544761C307800287FF4ECAD19B0284694
:104E3000BDE8F08F620700D4062709F1070222F0CF
:104E4000070CFCE80223E14603F000485FEA080C87
:104E500002D00FF2702C0DE05FEA045C02D50FF275
:104E6000682C07E05FEAC47C02D00FF2602C01E0FE
:104E7000AFF2700C4FF0FF3823F00043CDF850C074
:104E800065280CD006DC452809D046281DD04728C7
:104E90003DD13DE0662818D067287ED138E000215A
:104EA000112F01DB112000E0781CCDE9000106A9DB
:104EB0000EA8FFF7DDFCDDE90F010E9A039100213A
:104EC000009207F1010A04914DE04FF00040009775
:104ED000CDE9011006A90EA8FFF7CAFCDDE90F0213
:104EE00003920E9B11990022DDF80CA0009304920E
:104EF00011B9791C00EB010AB7EB0A0004D4C0F128
:104F0000FF3007F1010A0490AAEB0700019044E08A
:104F1000012F00DA01270021112F01DD112000E00F
:104F20003846CDE9000106A90EA8FFF7A1FCDDE98E
:104F30000F010E9A0391002104910092BA462107B5
:104F40000CD40399514500DA8A46BAF1010F05DD08
:104F5000009AAAF10101515C302908D0B84202DA66
:104F600010F1040F06DA0121CDE9011015E0AAF1D4
:104F70000101E9E7002805DC049901440491AAEB4A
:104F8000000102E0411C514500DD8A460499401AA7
:104F9000401C01904FF000400290200704D401987B
:104FA000504501DBCDF8048000208DF84F000298B9
:104FB0000DF14F07B0F1004F25D02B200E90029835
:104FC0004FF0020800280CDA404202902D200E908B
:104FD00007E00A210298FBF773FC3031029007F8D2
:104FE000011DB8F10001A8F10108F2DC02980028C7
:104FF000EFD1791E0E980870307800F0200040F054
:10500000450007F8020D12A8C01B00F1070814980C
:10501000007800B1012000EB0A01019801EBE0717A
:1050200005984144401A401E0590E00306D45B46B3
:105030002146179A059800F05DF805441498007809
:1050400018B15A46179990476D1CE00324D55B466A
:105050002146179A059800F04DF805441CE0049885
:10506000002807DBDDE90301884203DD0098405C8E
:10507000179901E0179930205A469047049805F196
:105080000105401C04900198401E019004D12E207F
:105090005A46179990476D1CBAF10001AAF1010A0E
:1050A000DDDC05E017F8010B5A46179990476D1C97
:1050B000B8F10001A8F10108F4DC5B462146179A1B
:1050C0000598ABE62D0000002B000000200000003A
:1050D0002DE9F041044600251E461746880404D4F5
:1050E00005E039462020B0476D1C641EF9D52846DE
:1050F000BDE8F0812DE9F041044600251E469046AA
:10510000C80301D5302700E02027880404D505E036
:1051100041463846B0476D1C641EF9D52846BDE8A7
:10512000F0810A68531C0B60107070472DE9FE4F28
:1051300007460E460025684601F016F800246FF079
:105140000F0AE8464FF0010957F8240056F82410DA
:10515000401A00D54042FBF71DFB5146FBF76FF9A3
:1051600058F8241011F0FF4F0BD0FBF72AF94FF03D
:105170007E51FBF7EEF80A4920F00040884205DC3A
:1051800007E0084908440849884202D309FA04F0B4
:105190000543641C032CD7DB2846BDE8FE8F0000C6
:1051A000295C0F3E666666C19A99D9003FB510A585
:1051B0003CCD8DE83C000022134606E0845C0A2CBE
:1051C00005D024B123449BB2521C8A42F6DBC3F3C0
:1051D000031403F00F031DF80440845410441DF819
:1051E000031041700A2181700021C1703FBD000091
:1051F000303132333435363738394142434445460D
:105200002DE9F04D8D4F21F0004A86B005460C4641
:10521000BA452ADBAAEB070028430AD08848824512
:1052200001DC1AD1CDB106B02846BDE8F04DFFF73C
:10523000F6BA844A844B2846FBF7B4F907460E4673
:10524000824A834B28462146FBF7ACF906B03A4622
:105250003346BDE8F04DFBF7FEB80120FFF702FB37
:1052600006B0BDE8F04DFFF7DFBA7A48824542DA72
:10527000BAF1795F0BDA2846FFF768FA042808BF0D
:10528000FFF7D8FA284606B02146BDE8F08D2A4639
:105290000B461046FBF786F9834602466E480E46DB
:1052A0000B4606217844FFF765FA5A463346FBF76A
:1052B00079F9804669488A465A463346042178443B
:1052C000FFF758FA5A463346FBF76CF900223B4683
:1052D000FBF7C1F802460B4640465146FBF7D4F9AE
:1052E0002A462346FBF75EF906B02A462346BDE868
:1052F000F04DFBF7B0B8284624F0004100223D46AF
:105300003B46FBF74CF94FF0FF32FBF72CFA064611
:10531000024653480F460B4606217844FFF72AFA07
:1053200032463B46FBF73EF9CDE900014D48324697
:105330003B4604217844FFF71DFA32463B46FBF713
:1053400031F900222B46FBF786F88346029130465E
:10535000394602F007FC804643480D46504517DCAD
:10536000DDE900015A46029BFBF78EF942462B46C7
:10537000FBF718F942462B46FBF76DF80122FBF7C5
:10538000F2F9304A304BFBF707F9304A304B4CE02A
:105390004FF0000A52460B464046FBF75CF8CDE959
:1053A000031052462B4610461946FBF7FBF83246CF
:1053B0003B46FBF7F4F8DDE90332FBF765F90646F7
:1053C0000F46DDE900015A46029BFBF75DF9834673
:1053D0000091012230463946FBF7C5F9194A1A4BAC
:1053E000FBF7DDF806460F46012240462946FBF74B
:1053F000BAF95A46009BFBF7D5F832463B46FBF715
:10540000CBF806460F46012250462946FBF7ABF97A
:105410000E4DDFF858802A464346FBF7C0F8324667
:105420003B46FBF7BCF82A464346FBF7B8F8002C8E
:10543000D8BF81F0004106B0BDE8F08D0000F03F1C
:105440000000F07F075C143326A6913C182D4454CD
:10545000FB21F93F0000E03F005700001657000015
:105460008A560000A05600003333EF3FFB21E93F8E
:105470002DE9F84F04460D4621F000400091734994
:10548000814211DC7249884201DC06D12CB12046F0
:105490002946BDE8F84FFFF7C2B96E48002DCCBFD2
:1054A0006D496E49BDE8F88F6D49814211DD6D4946
:1054B0008142D8BF4FF0FF366DDD20462946FFF709
:1054C00045F9042808BFFFF7B5F920462946BDE88D
:1054D000F88F6549654F25F00045814233DD644909
:1054E000814219DD002632464FF08043204629468E
:1054F000FAF7B1FF80468A46012220462946FBF78B
:1055000032F900223B46FBF747F842465346FBF789
:10551000BBF804460D463EE001260022BA463B4653
:1055200020462946FAF797FF80460F460022534649
:1055300020462946FBF730F842463B46FBF7A4F8E5
:1055400004460D4627E04B4981421BDDDFF828A1C8
:1055500002260022534620462946FBF723F8002264
:105560003B46FAF778FF80460F4600225346204616
:105570002946FBF711F842463B46FBF785F80446FF
:105580000D4608E0032622462B4600203B49FBF748
:105590007BF804460D4622462B4610461946FBF77B
:1055A00001F88B46824602460B46FAF7FBFF074698
:1055B0000246334888460B4606217844FFF7DAF85E
:1055C00052465B46FAF7EEFF82462E488B463A4635
:1055D000434605217844FFF7CDF83A464346FAF7AB
:1055E000E1FF02460B46002E504659460CDAFAF708
:1055F00032FF22462B46FAF7D5FF01B022462B4652
:10560000BDE8F04FFAF7CBBFFAF725FF22462B464D
:10561000FAF7C8FF1C4A7A4402EBC603D3E9002319
:10562000FAF7BAFF22462B46FAF7B6FF174A7A4432
:1056300002EBC603D3E90023FAF7B1FF009A002A70
:10564000B8BF81F00041BDE8F88F000000001044B1
:105650000000F07F182D4454FB21F93FFB21F9BFD6
:105660000000DC3F0000203E0000F33F0000F03F60
:105670000000E63F008003400000F83F0000F0BF5C
:10568000A254000060540000FE530000C653000006
:105690002DE9F04D9446CCF1000423F000464CEA8D
:1056A0000404524F46EAD4749A46884621F00042D8
:1056B000BC4206D8454240EA050442EAD474BC42E2
:1056C00004D9BDE8F04D6246FFF7ACB8AAF14055E9
:1056D000A5F17F6555EA0C040BD0022404EAAA74F4
:1056E000434DDFF810E144EAD87452EA000B04D0CD
:1056F0000CE0BDE8F04DFFF7BBBE002C14BF012C41
:10570000BDE8F08D022C30D0032C32D056EA0C0BC1
:105710000AD0BE4220D1BA4209D126F0804622F0FA
:1057200080423346114617E000291ADB25E0DFF8F6
:10573000C8B0FB44002C04BFDBE90001BDE8F08DDC
:10574000012C02BFDBE9000181F00041BDE8F08DD2
:10575000022C0AD0032C0CD0BA4212D1B8F1000F9F
:105760000BDA23482549BDE8F08D28462449BDE8D9
:10577000F08D28467146BDE8F08D1D482149BDE8F1
:10578000F08D921B12153C2AC4BF19481D490EDC2E
:10579000BAF1000FBEBF12F13C0F0020014606DB3C
:1057A0006246FAF771FF21F00041FFF761FE002C1D
:1057B00008BFBDE8F08D012C04BF81F00041BDE8B9
:1057C000F08D114A114B022C07D0FAF7E5FE2A465C
:1057D000BDE8F04D0A4BFAF7DFBEFAF7DDFE2A46C8
:1057E000BDE8F04D064BFAF7DABE00000000F07F8E
:1057F000182D4454FB2109C05A530000FB21F9BF66
:10580000FB210940FB21F93F075C143326A6A13C8C
:1058100010B5044602E00120FCF76CFB641EFAD2CE
:1058200010BD08B560B120208DF8000028208DF84B
:10583000010030208DF8020038208DF8030004E0CC
:10584000A32204216846FAF70CFD6A46042140F6BB
:105850009E2001F063FE01F021FB08BD3EB5044629
:1058600002208DF80000CA208DF80100E3208DF899
:10587000020009208DF803006A460421682001F027
:105880004DFEA3208DF80000610609D5C0218DF8DA
:105890000110C8218DF80210C2218DF8031005E017
:1058A0008DF801008DF802008DF8030014F4C07F1C
:1058B00009D0C4218DF80410CC218DF80510C62123
:1058C0008DF8061005E08DF804008DF805008DF8C0
:1058D00006008DF808008DF807008DF809006A466B
:1058E0000A2140F6A72001F019FEA0074FF0D805C5
:1058F00003D020208DF8000001E08DF800506A46AA
:10590000012140F6B62001F009FEA00601D50120D4
:1059100000E0002000F08EF814F4C07F1ED0E005F7
:105920000AD5B2208DF800008B208DF80100B6203A
:105930008DF802009B2009E0B0208DF80000802047
:105940008DF80100B4208DF8020090208DF803003E
:105950006A46042140F6A22001F0E0FDE1074FF481
:105960000B6022D0F8218DF800106A46012101F069
:10597000D5FDFA21072000F037FB072000F002FBDD
:10598000012000F01FFB642000F0C2FB4FF4FA700E
:1059900000F0CEFBC821254800F0BCFA282000F01A
:1059A000D1FA0A2000F0DEFA05E08DF800506A46D0
:1059B000012101F0B3FDA00703D5D9208DF8000027
:1059C00001E08DF800506A46012140F23D7001F07F
:1059D000A5FD600701D5012000E0002000F048F897
:1059E000E00601D5012000E00020FFF71AFF104D6E
:1059F00044F00800688101F051FA0020A8736006A5
:105A000001D50620A87314F4C07F02D0A87B801DA6
:105A1000A87314F0140F02D0A87B1030A873A0074D
:105A200002D0A87B001DA87300203EBD09E3CA0276
:105A30000C2100200EB54FF4976310B106A107C9E1
:105A400001E008A207CA8DE807006A460921184646
:105A500001F064FD0EBD0000B8AAB38DB4980D35F9
:105A60005D000000B8AAAAAAB088C3C5C70000009C
:105A700008B560B1C0208DF80000C2208DF801008B
:105A8000C4208DF80200C6208DF8030004E08B22AC
:105A900004216846FAF7E5FB6A46042140F698209F
:105AA00001F03CFD01F0FAF908BD0000C8234FF4F5
:105AB0008062024940F6F63001F0D2B8AC9D000891
:105AC0002DE9F04F89B01746DDE9125200244B4E04
:105AD000884681462C80A246B07B694601F06CF96D
