:020000040800F2
:10000000602200209901000867160008DD1400082E
:1000100065160008550200080922000800000000CB
:1000200000000000000000000000000001010008C6
:100030005702000800000000450100081D1E0008CE
:10004000B3010008B3010008B3010008B3010008C0
:10005000B3010008B3010008B3010008B3010008B0
:10006000B3010008B3010008B3010008B3010008A0
:10007000B3010008B3010008B3010008B301000890
:10008000B3010008B3010008B3010008B301000880
:10009000B3010008B3010008B3010008B301000870
:1000A000B3010008E11E0008B3010008B301000815
:1000B000B3010008B3010008B3010008B301000850
:1000C000B3010008B3010008B3010008B301000840
:1000D000B3010008F1210008FD210008B301000868
:1000E000B3010008B3010008B3010008DFF80CD029
:1000F00000F09EF800480047CD2300086022002051
:10010000224B19680868B0E8F00F80F30988BFF344
:100110006F8F4FF0000080F311884EF00D0E704786
:100120000000000006480068006880F3088862B696
:1001300061B6BFF34F8FBFF36F8F00DF00BF00BF0B
:1001400008ED00E0EFF30980BFF36F8F0F4B1A68E3
:1001500020E9F00F106008B54FF0500080F31188CF
:10016000BFF34F8FBFF36F8F02F012FD4FF000000F
:1001700080F31188BDE8084019680868B0E8F00FFE
:1001800080F30988BFF36F8F704700BF28000020FD
:10019000EFF3058070470000064880470648004797
:1001A000FEE7FEE7FEE7FEE7FEE7FEE7FEE7FEE727
:1001B000FEE7FEE7991E0008ED00000840EA010393
:1001C0009B0703D009E008C9121F08C0042AFAD20D
:1001D00003E011F8013B00F8013B521EF9D27047D1
:1001E000D2B201E000F8012B491EFBD27047002279
:1001F000F6E710B513460A4604461946FFF7F0FF26
:10020000204610BD30B50B460146002020220124B7
:1002100009E021FA02F59D4205D303FA02F5491BD4
:1002200004FA02F52844151EA2F10102F1DC30BDEA
:10023000064C074D06E0E06840F0010394E8070033
:1002400098471034AC42F6D3FFF754FFD448000867
:10025000F4480008FEE770472DE9F0470446167899
:1002600003F00700DFF85481089D91460F460828E7
:1002700005D2DFE800F00416293C4F62758830068D
:1002800002D598F81C2006E098F81C00012801D03F
:10029000012200E00022B9B2A0B201F00FFB6D1EF6
:1002A00076D0700602D598F81C2006E098F81C005D
:1002B000012801D0012200E00022601CB9B280B206
:1002C00001F0FCFA6D1E76D0B00602D598F81C201D
:1002D00006E098F81C00012801D0012200E000226D
:1002E000A01CB9B280B201F0E9FA6D1E63D0F0062D
:1002F00002D598F81C2006E098F81C00012801D0CF
:10030000012200E00022E01CB9B280B201F0D6FA6E
:100310006D1E50D0300702D598F81C2006E098F8E2
:100320001C00012801D0012200E00022201DB9B2EA
:1003300080B201F0C3FA6D1E3DD0700702D598F867
:100340001C2006E098F81C00012801D0012200E0E2
:100350000022601DB9B280B201F0B0FA6D1E2AD041
:10036000B00702D598F81C2006E098F81C00012878
:1003700001D0012200E00022A01DB9B280B201F03C
:100380009DFA6D1E17D0F00703D098F81C2007E0E7
:1003900011E098F81C00012801D0012200E00022A1
:1003A000E01DB9B280B201F089FA6D1E03D019F8D0
:1003B000016F083463E7BDE8F0870000401A0020B1
:1003C0000A2805D00D2805D003490969096808479E
:1003D00000F096B870470000401A00207CB5144623
:1003E0000D4682688188CDE9001243880288214643
:1003F000284601F075F87CBD7CB51E4C05462946A3
:100400002069806900F038F8002831D04168008800
:10041000281A01EBC0056968A878CDE900012069B8
:100420002A78B4F91610037DB4F9140001F058F8D5
:100430002169487D097D884212D9227F012A01D095
:10044000012200E000220092A28A2B78E68A1A4458
:10045000304483B2701881B292B2A08A01F07EF962
:100460002269B4F914006978927D01FB0200A08230
:100470007CBD0000401A002006E002888A4202D8B3
:1004800042888A4202D280680028F6D17047000074
:1004900070B5094D0446214628698069FFF7ECFFD5
:1004A000002807D041680088201A11F83000296917
:1004B000897D484370BD0000401A0020012008805B
:1004C000704710B58069FFF7D7FF002800D00120E2
:1004D00010BD10B50021084600F0C0F8402380226E
:1004E0000021BDE810400846AFF3008038B5002475
:1004F0009BB292B289B280B2009401F02FF938BD5C
:1005000000B500F08FF80249CA8A1044C88200BDC5
:10051000401A00202DE9FC47060054D000F082F874
:10052000374C8146B4F9148000F082F8E18A07461E
:10053000C81BE0823DE000BF47F6FF71304600F087
:10054000F8F882460146304600F0DAF80546A07E0B
:1005500000F0030001283CD0022836D00020A18AF8
:100560006A46081AA082ADF80000691E0844ADF87A
:100570000400E08AADF80200A9F101010844ADF8D9
:1005800006005146304600F0A1F8BDF80200E082B6
:100590005146304600F092F8064430780A281AD0C6
:1005A0000D2818D0BDF800002844A082307818B17A
:1005B000761C30780028BFD1E08A3844E082608B16
:1005C00020F003006083BDE8FC8705EBD570401088
:1005D000C5E72846C3E7A07E00F0030001280BD042
:1005E000022809D00020A08230780A28DED1E18AD2
:1005F00001EB0900E082D9E7A4F81480F4E70000D9
:10060000401A0020024B9982DA82FFF783BF000074
:10061000401A0020FFF7E2BE01490969496808470E
:10062000401A002001480069407D7047401A0020B0
:1006300009490020897E01F00C020749042A096952
:1006400006D0082A01D00C2A01D1087D4008704745
:10065000087D401E70470000401A002070B50D460E
:1006600001F0D4FD0446284601F0D6FD204370BDBC
:100670000B4910B52E2008700A4800217F22018006
:10068000418082803F22C2808182C182064901610D
:1006900001214172017701F089F9002010BD0000AD
:1006A00088000020401A002004470008024A11690F
:1006B00000B1106108467047401A0020002000E099
:1006C000401C491EFCD2704701F024B970B50B4B99
:1006D000126804469A821214DA820D460BE000BFBB
:1006E00014F8010B7F2804D914F8011B6D1E41EA90
:1006F0000020FFF765FE6D1EF2D570BD401A002088
:1007000070B50D4604004FF000060CD10FE0641CDC
:100710006D1E7F2804D914F8011B6D1E41EA0020CC
:10072000FFF77AFF0644207808B1002DEFDA304653
:1007300070BD002208E0401C7F2B02D9401C521CD7
:1007400001E00A2B04D0521C03780BB18A42F2DB81
:100750001046704710B590F821100024022903D0EC
:100760000421816301243DE001680A6822F00E0241
:100770000A6001680A6822F001020A601A4A0168E8
:10078000914201D1012121E0174A1432914201D155
:1007900010211BE0144A2832914201D1891515E03D
:1007A000114A3C32914201D189140FE00E4A503275
:1007B000914202D14FF4803108E00B4A64329142F9
:1007C00002D14FF4801101E04FF08071064A083ADF
:1007D0005160012180F82110002180F82010416B28
:1007E00001B18847204610BD0800024070B504469C
:1007F00000F0F6F80546601C02D004480078044476
:1008000000F0EEF8401BA042FAD370BD18000020A3
:100810002DE9F84FDFF890A100220AF1040B1446ED
:1008200001274FF00F090BF1040E00BF0B6807FA08
:1008300004F52B40AB4274D1DFF870C14E68A6EBD3
:100840000C0866452BD00DDC032E34D005DC36B306
:10085000012E19D0022E2FD11BE0112E16D0122EF0
:100860002AD119E0B8F5881F19D006DCB8F5803F09
:1008700015D0B8F5801F1FD111E0B8F5001F0ED0BC
:10088000B8F5041F18D10AE0CA6815E0CA68121D3D
:1008900012E0CA6808320FE0CA680C320CE08A68BD
:1008A0002AB1012A4FF0080203D0456104E0042276
:1008B00002E0056100E00022FF2B01D8064601E0BE
:1008C00000F104064FEA840501D9A5F12005D6F808
:1008D00000C009FA05F82CEA080C02FA05F54CEA02
:1008E000050CC6F800C04D68ED0057D5304DAE6917
:1008F00046F00106AE61AD6924F0030605F001057E
:1009000000952C4D06EB050CDCF80850A6074FEAC5
:10091000167809FA08F6B543274EB04202D10026F0
:1009200010E03BE0254EB04201D101260AE0244E02
:10093000B04201D1022605E0224EB04201D1032689
:1009400000E0042606FA08F62E43CCF808604D684D
:10095000DAF80060ED03554601D51E4300E09E43E2
:100960002E604D68DBF80060AD035D4601D51E4387
:1009700000E09E432E604D68DEF80060ED02754693
:1009800001D51E4300E09E432E604D68AD020E4D22
:100990002E6801D51E4300E09E432E60641C102C7F
:1009A000FFF444AFBDE8F88F0004014000001110CF
:1009B000001002400000014000080140000C01400E
:1009C00000100140001401400C0401408068084000
:1009D00000D0012070470AB1016170470904FBE7AC
:1009E00001488068704700001800002002488168B4
:1009F000027811448160704718000020074810B544
:100A0000016841F010010160032000F093F800201C
:100A100000F006F800F03EF8002010BD0020024073
:100A200000B5014687B00022192000F063F81920B4
:100A300000F054F81348816941F4006181618069D4
:100A400005A900F400600690684600F03BF900F04C
:100A500069F90D490D4AB0FBF1F10D48491E0260DC
:100A6000416040F2E7320021C0E90321816000F0DB
:100A700023FB10B1012007B000BD054800F038FB92
:100A8000F9E700000010024040420F00002C014036
:100A9000100100200F4808B5816941F00101816112
:100AA000816901F001010091C16941F08051C1618A
:100AB000C069002200F0805000900F21901E00F0CD
:100AC00019F80548416821F0E06141F0007141608A
:100AD00008BD0000001002400000014000F01F02AD
:100AE000012191404009800000F1E020C0F8001190
:100AF00070470000F0B40E4B1B680C46C3F3022392
:100B0000C3F10705042D00D90425191D072901D2B9
:100B1000002300E0DB1E012606FA05F1491E2140F4
:100B200099409E40761E16403143F0BC00F09CBDBB
:100B30000CED00E0064900F0070208684FF6FF03DD
:100B4000184040EA0220034A104308607047000042
:100B50000CED00E00000FA052DE9F047DFF85481C4
:100B600005460E46D8F8000000F00700B0420CD24F
:100B7000D8F8001021F007013143C8F80010D8F868
:100B8000000000F00700B0426FD128684A4C81078E
:100B900012D5400703D5606840F4E06060602878B3
:100BA000000703D5606840F4605060606068A96821
:100BB00020F0F000084360602878C00744D06868DF
:100BC000012816D02168022816D0890700294CDA9E
:100BD000616821F0030101436160FFF701FF69686B
:100BE000074641F2883001290ED00229814618D0EB
:100BF00026E021688903E9E78901E7E7FFF7F0FECE
:100C0000C11B494501D918E081466068C0F38100E5
:100C10000128F3D118E000BFFFF7E2FEC11B4945F0
:100C20000BD86068C0F381000228F5D10CE000BF4A
:100C3000FFF7D6FEC11B494502D90320BDE8F08766
:100C4000606810F00C0FF3D1D8F80010404601F0A6
:100C50000701B1420BD9016821F00701314301605E
:100C6000006800F00700B04201D00120E6E72878D4
:100C7000400705D56068E96820F4E06008436060DB
:100C80002878000706D56068296920F4605040EA9A
:100C9000C100606000F056F86168084AC1F30311B2
:100CA000515CC840064908600020FFF7B9FE0020EB
:100CB000C4E700000020024000100240F04000089D
:100CC000240000200F2202600C4A536803F0030343
:100CD0004360536803F0F0038360536803F4E063F8
:100CE000C36052684FF4E06303EAD2020261044831
:100CF000006800F007000860704700000010024024
:100D0000002002400448054900684968044AC1F3CC
:100D10000221515CC84070472400002000100240AE
:100D2000004100080448054900684968044AC1F3C5
:100D3000C221515CC84070472400002000100240CE
:100D40000041000812A185B00FC98DE80F0014A062
:100D5000144A006804905168134801F00C03042BF6
:100D600010D0082B0ED1C1F38343C9031DF8030033
:100D70000AD5516804AAC1F34041515C0A4A504364
:100D8000B0FBF1F005B0704708494843FAE70000AE
:100D900002030405060708090A0B0C0D0E0F1010BC
:100DA000010200000010024000127A0000093D001C
:100DB0002DE9F84F04460078B94DC00748D068685F
:100DC000C0F38100012807D06868C0F381000228C1
:100DD00009D16868C00306D52868800338D56068E3
:100DE00000286FD034E06068B0F5803F0BD010B1C0
:100DF000B0F5A02F11D0286820F480302860286832
:100E000020F4802002E0286840F480302860606888
:100E100088B1FFF7E5FD064609E0286840F4802028
:100E20002860F0E7FFF7DCFD801B642875D8286890
:100E30008003F7D50CE0FFF7D3FD064605E000BFC1
:100E4000FFF7CEFD801B6428F0D828688003F7D414
:100E50002078944E80074FF001094FF000083BD5F1
:100E6000686810F00C0F07D06868C0F38100022892
:100E700009D16868C00306D42868800714D52069A2
:100E800001281FD110E02069B0B1C6F80090FFF72B
:100E9000A7FD074605E000BFFFF7A2FDC01B022823
:100EA000C4D828688007F7D52868616920F0F80061
:100EB00040EAC10028600FE0C6F80080FFF790FD0F
:100EC000074606E0E9E000BFFFF78AFDC01B0228E5
:100ED00023D828688007F7D4207800072CD57248DB
:100EE000A169D9B1C0F80090FFF77AFD074604E088
:100EF000FFF776FDC01B02280FD8686A8007F7D578
:100F00006A484FF4FA510068B0FBF1F0009000BF5E
:100F10000098411E0091FAD20EE080E0C0F80080F7
:100F2000FFF75EFD074604E0FFF75AFDC01B0228ED
:100F300075D8686A8007F7D42078400760D5E869DB
:100F40000027C00008D4E86940F08050E861E869F3
:100F5000012700F08050009055480168C90513D45E
:100F60000168834641F480710160FFF739FD8246D4
:100F700006E000BFFFF734FDA0EB0A0064284ED85E
:100F8000DBF80000C005F5D5E06801280AD008B1FB
:100F9000052813D0286A20F001002862286A20F072
:100FA000040002E0286A40F001002862E06841F293
:100FB000883B98B1FFF714FD82460BE0286A40F0A9
:100FC00004002862EEE700BFFFF70AFDA0EB0A016C
:100FD00059455AD8286A8007F6D50CE0FFF700FD7E
:100FE000824605E0FFF7FCFCA0EB0A0159454CD80E
:100FF000286A8007F6D41FB1E86920F08050E861C4
:10100000E06988B36968C1F38101022945D00228EB
:10101000C6F8608004D0FFF7E3FC044638E034E013
:10102000FFF7DEFC074604E0FFF7DAFCC01B0228EE
:101030002BD828688001F7D4206AB0F5803F05D10D
:101040006868A16820F4003008436860D4E90801AA
:101050000843696821F4741108436860C6F8609019
:10106000FFF7BEFC044606E015E000BFFFF7B8FC42
:10107000001B022809D828688001F7D50BE000BFC3
:10108000FFF7AEFC001B022802D90320BDE8F88F51
:1010900028688001F4D40020F8E70120F6E700007A
:1010A000001002400000424280044242240000201E
:1010B000007000407047704710B5040003D094F8EA
:1010C0003D0010B107E0012010BD002084F83C0075
:1010D000204600F00CF8022084F83D00211D206815
:1010E00000F004FF012084F83D00002010BD70478F
:1010F0000168CA6842F00102CA600068016841F0F4
:101100000101016000207047704770B50446006817
:1011100001694FF00005C943890715D4C168C94367
:10112000890711D4E91E01610120207720688069B8
:101130008007204602D0FFF7E7FF04E000F098F8B0
:10114000204600F096F8257720680169C9434907D1
:1011500017D4C168C943490713D46FF00401016172
:10116000022020772068806910F4407F204602D05A
:10117000FFF7CAFF04E000F07BF8204600F079F8A2
:10118000257720680169C943090716D4C168C94396
:10119000090712D46FF0080101610420207720684C
:1011A000C0698007204602D0FFF7AEFF04E000F0E0
:1011B0005FF8204600F05DF8257720680169C94393
:1011C000C90617D4C168C943C90613D46FF010010A
:1011D0000161082020772068C06910F4407F204614
:1011E00002D0FFF791FF04E000F042F8204600F043
:1011F00040F8257720680169C943C90708D1C1684B
:10120000C943C90704D1891E0161204600F032F8A4
:1012100020680169C943090609D4C168C9430906A0
:1012200005D46FF0800101612046FFF743FF20687D
:101230000169C943490609D4C168C943490605D4AF
:101240006FF040010161204600F01EF8206801693E
:10125000C94389060BD4C168C943890607D46FF016
:10126000200101612046BDE87040FFF724BF70BD3A
:101270007047704700680349884201D1FFF7B6BB49
:1012800070470000002C01407047704770B502683D
:1012900004461068D168536910F00F0F50D003F066
:1012A000010501F4907635435DD0C20705D0CA052B
:1012B00003D5E26B42F00102E263420705D5DA078B
:1012C00003D0E26B42F00202E263820705D5DA073F
:1012D00003D0E26B42F00402E263020705D5DA07AD
:1012E00003D0E26B42F00802E263E26B002A33D0E3
:1012F000800604D5880602D5204600F043FE20680B
:101300004069E16BC0F38010090700D428B3204680
:1013100000F02AFE2068416949061AD5416921F08A
:1013200040014161606BA0B11B494163606BFFF7F5
:1013300011FA002810D0606B416BBDE8704008477F
:10134000830610D58B060ED52046BDE8704000F010
:1013500019BE2046FFF799FF70BD2046FFF795FFA5
:101360000020E06370BD030606D50B0604D52046B9
:10137000BDE8704000F00ABF4006F3D54806F1D53D
:10138000D168204621F04001D160202184F8391035
:1013900000F0A3F870BD0000591F000870B50400EC
:1013A00004D094F83900002510B106E0012070BD8A
:1013B00084F83850204600F023F8242084F83900BF
:1013C0002068C16821F40051C160204600F026FE6B
:1013D0002068016921F4904101612068416921F090
:1013E0002A0141612068C16841F40051C160E56390
:1013F000202084F8390084F83A00002070BD0000F5
:1014000070B586B0002400940194029403942E4E8B
:1014100003682E49022003222D4DB34226D18B6949
:1014200043F480438B618B6903F4804304938B699D
:1014300043F004038B618969039201F00401049174
:101440000102CDE9001069462846FFF7E1F92815A9
:10145000CDE90004694628460294FFF7D9F9002235
:1014600006212520FFF746FB252028E0194EB34230
:1014700027D1CB6943F40033CB61CB6903F400334C
:1014800004938B6943F004038B618969039201F033
:10149000040104910421CDE9001069462846FFF7B4
:1014A000B7F90820CDE90004694628460294FFF701
:1014B000AFF9002206212620FFF71CFB2620FFF7AC
:1014C0000DFB06B070BD0000003801400010024066
:1014D000000801400044004070477047FEE70000EC
:1014E0002DE9FE43DFF87C90DDE90A65B9F9028059
:1014F000871801EB030C7F1EA8EB0104ACF1010C73
:10150000002C05DD1B1B002B2ADD04FB0655414684
:10151000B9F906804C46ACEB080CBCF1000F03DDBA
:10152000A3EB0C03002B1BDDB4F904C0A7EB0C07E5
:10153000002F00DDD21BB9F900400027844208DDEE
:10154000241A24F007073844121B05EBE40504F0C5
:101550000707002A04DDCDE90065029700F004F8D2
:10156000BDE8FE83401A00202DE9F84F1E46DDE954
:101570000A951746884683460024DDF830A009E026
:1015800004EB080153462A4658460097FEF764FECE
:101590004D44641CB442F3DBBDE8F88F2DE9F04301
:1015A00085B000242C48009401940294039481692E
:1015B00041F020018161816901F02001049181697C
:1015C00041F004018161816901F0040104918169A4
:1015D00041F0080181618069DFF8808000F0080037
:1015E00004900122C0214046FFF7F5F9DFF8709022
:1015F000012203214846FFF7EEF94FF44C67002221
:1016000039464846FFF7E7F948F2301001258DE8E2
:10161000310069464046FFF7FBF8C0200226CDE9BD
:101620000005CDE9024669464046FFF7F1F8032080
:10163000CDE90005CDE9024669464846FFF7E8F8DE
:1016400001AA1120009782E8510069464846FFF739
:10165000DFF805B0BDE8F08300100240000801404B
:10166000000C0140FEE770470907090E002806DA62
:1016700000F00F0000F1E02080F8141D704700F129
:10168000E02080F8001470472DE9F041154F054621
:1016900000244FF400684FF480660022314638463B
:1016A000FFF799F9280601D5012200E00022414602
:1016B0003846FFF790F96806050E01223146384694
:1016C000FFF789F9641CE4B2082CE6D30022314606
:1016D0003846FFF780F931463846BDE8F04101222F
:1016E000FFF779B9000C014070B501220B4D94024F
:1016F00021462846FFF76FF90122D60231462846D7
:10170000FFF769F9002231462846FFF764F92146C0
:101710002846BDE870400022FFF75DB9000C01408B
:1017200070B50D4D4FF48064002221462846FFF726
:1017300052F96600002231462846FFF74CF9012293
:1017400031462846FFF747F921462846BDE8704054
:101750000122FFF740B90000000C01402DE9F843D9
:101760001F46DDF820900D46064680281FD2402DEA
:101770001DD2B018802802D3C6F1800082B2E819C9
:10178000402802D3C5F1400087B2002406EB0208CE
:101790000BE0281983B281B21FFA88F23046CDF8E7
:1017A000009000F006F8641CE4B2BC42F1D9BDE838
:1017B000F8832DE9FC4F1D4614460E460746802847
:1017C00000D37F27802C00D37F24402E00D33F26D8
:1017D000402D00D33F25A74201D2E01B00E0381B7B
:1017E0000FFA80F9AE4201D2A81B00E0701B0FFA7D
:1017F00080FA4FF0FF30A74201D2012100E00146FC
:101800000191AE4200D2012083464846D14501DC19
:10181000CAF1000000EBD07040F34F08B9F1000F9F
:1018200023D0BAF1000F35D0C9F100000090314645
:1018300038460B9A00F042F8A74201D1AE4227D0B9
:1018400000994046884506DDA8EB0A010FFA81F8A9
:10185000019939448FB25045E9DA08EB09000FFAD3
:1018600080F806EB0B0086B2E1E7B54202D22846CB
:10187000354686B2BC4200D2A7B234B206E0A1B26D
:1018800038460B9A00F01AF8641C24B2AC42F6DD1C
:10189000BDE8FC8FB54200D2AEB2BC4202D22046B7
:1018A0003C4687B23DB206E0A8B231460B9A00F042
:1018B00005F86D1C2DB2A542F6DDE9E770B580286C
:1018C00013D2402911D20B4B012401F007051E79D8
:1018D000AC40094BC90800EBC1100EB132B101E0B8
:1018E000012A03D0195CA143195470BD195C21432E
:1018F000FAE700008A000020601A002028B1FF22C9
:101900004FF480610248FEF76BBC0022F8E700004C
:10191000601A002070B50E4D002400BF04F1B00025
:10192000C0B2002100F016F80021084600F012F8BD
:101930000021102000F00EF805EBC4104022802199
:1019400000F01AF8641CE4B2082CE7D370BD000064
:10195000601A002070B50D460446FFF7C5FE7820DA
:10196000FFF792FE2846FFF78FFE2046FFF78CFE1A
:10197000BDE87040FFF7D4BE70B514460D4606466C
:10198000FFF7B2FE7820FFF77FFE2046FFF77CFED0
:10199000002404E0305DFFF777FE641CA4B2AC4283
:1019A000F8D3BDE87040FFF7BBBE000010B50021C2
:1019B000AE20FFF7CFFF00212020FFF7CBFF002153
:1019C0001020FFF7C7FF0021B020FFF7C3FF002161
:1019D000C820FFF7BFFF00210846FFF7BBFF00212B
:1019E0001020FFF7B7FF00214020FFF7B3FF0021D1
:1019F0008120FFF7AFFF0021FF20FFF7ABFF0021A1
:101A0000A120FFF7A7FF0021A620FFF7A3FF0021D9
:101A1000A820FFF79FFF00213F20FFF79BFF002139
:101A2000A420FFF797FF0021D320FFF793FF0021A9
:101A30000846FFF78FFF0021D520FFF78BFF00211D
:101A4000F020FFF787FF0021D920FFF783FF002157
:101A50002220FFF77FFF0021DA20FFF77BFF002124
:101A60001220FFF777FF0021DB20FFF773FF002133
:101A70002020FFF76FFF00218D20FFF76BFF002173
:101A80001420FFF767FF0021AF20FFF763FF00205E
:101A9000FFF734FFFFF73EFF03480021018041803C
:101AA0000121417110BD00008A000020012000F0DA
:101AB000F1FCFBE7B4B0FEF7DBFD6D48FEF7F6FD89
:101AC000FEF707FD002205216AA0FEF79BFD142208
:101AD00028216EA0FEF796FD28222D216EA0FEF78C
:101AE00091FDFEF7F1FD4FF47A70FEF77FFE0024C2
:101AF000254601274FF0020A4FF00308A1464FF494
:101B0000967B674EFEF7E5FC3078012808D07078A8
:101B1000012805D0B078012802D0F078012805D13D
:101B200024B9604902A800F07DFB012430782040F0
:101B30008DB10021084226D0307970B1012803D040
:101B4000022811D0032815D0564902A800F06AFBDC
:101B500086F8049014E00121ECE7534902A800F054
:101B600061FB86F804800BE0504902A800F05AFBA4
:101B7000377105E04E4902A800F054FB86F804A036
:101B8000584600F087FC7078204065B1002108427B
:101B900028D0307948B101280DD0022812D003286E
:101BA00017D0444916E00121F1E7404902A800F0AE
:101BB00039FB377113E03E4902A800F033FB86F889
:101BC00004A00CE0384902A800F02CFB86F8048041
:101BD00005E0344902A800F025FB86F80490584639
:101BE00000F058FCB078204065B10021084215D0C3
:101BF000307948B1012809D0022831D0032831D0EA
:101C00002DA104E00121F1E72DA100E030A102A8FF
:101C100000F008FB0125584600F03CFCF07820421B
:101C200004D0204902A800F0FDFA0025254209D081
:101C3000F178B078CDE900017378327829A102A853
:101C400000F0F0FA4FF0000211466CB102A8FEF766
:101C5000D9FC00BFFEF738FD012000F01BFC51E766
:101C600026A1D4E72AA1D2E72E48FEF7D3FCF1E75C
:101C700080400008B5E7D7D3CFB5CDB3D7DBBACF17
:101C8000BFCEB3CCC9E8BCC600000000313630344A
:101C90003134313200000000B3C2D2DDBABD0000E1
:101CA000000000207447000864480008C44700088A
:101CB00014480008244700086572726F7200000023
:101CC000CFB5CDB3B2E2CAD40A544F444F0000009E
:101CD000CDD3C2DDD2C7D7CBCCACBDE2CBE30A5467
:101CE0004F444F004B313A2564204B323A25642053
:101CF0004B333A2564204B343A256400B4AEBFDA46
:101D0000CDA8D0C5B2E2CAD40A544F444F00000057
:101D100057494649CDA8D0C5B2E2CAD40A544F4467
:101D20004F00000010320008FF240025204600F07C
:101D3000F1FD6420FEF75AFDE0436D1CC4B20A2D8C
:101D4000F4DB012000F0A6FBFBE700000126314D8B
:101D5000314C4FF480784FF4004900271021284679
:101D6000FEF734FE78B120212846FEF72FFED8B1C9
:101D700041462846FEF72AFE30B349462846FEF77C
:101D800025FE88B341E0267002E000BF00F082FB30
:101D900010212846FEF71AFE00284FF00A00F5D061
:101DA00000F078FB277030E0667001E000F072FB15
:101DB00020212846FEF70AFE00284FF00A00F5D041
:101DC00000F068FB677020E0A67001E000F062FBA5
:101DD00041462846FEF7FAFD00284FF00A00F5D0EC
:101DE00000F058FBA77010E0FFE7E67002E000BFCC
:101DF00000F050FB49462846FEF7E8FD00284FF06A
:101E00000A00F5D000F046FBE770012000F042FB2D
:101E1000A4E70000000801400000002010B5502099
:101E200080F31188BFF34F8FBFF36F8F00F044FF33
:101E300018B104494FF080500860002080F31188E9
:101E400010BD000004ED00E030B58FB028216846D9
:101E5000FEF7CDF914210AA8FEF7C9F901210804FB
:101E6000CDE900100024029402250491CDE9075029
:101E70004FF4E01009906846FEF79AFF0F20CDE975
:101E80000A056802CDE90C4002210AA80E94FEF76B
:101E900063FE0FB030BD00000D48016841F0010144
:101EA000016041680B4A1140416001680A4A1140D3
:101EB0000160016821F480210160416821F4FE0184
:101EC00041604FF41F0181600449C00308607047FE
:101ED000001002400000FFF8FFFFF6FE08ED00E0F2
:101EE0000148FFF712B9000010010020F0B50268A8
:101EF000164B174C174D4FF08047984205D0B8420B
:101F000003D0A04201D0A84203D122F070064A6853
:101F10003243984205D0B84203D0A04201D0A84233
:101F200003D122F44074CA68224322F080044A6933
:101F3000224302608A68C2620A688262984201D1C2
:101F40000969016301214161F0BD0000002C0140DD
:101F5000000400400008004010B5406A0021C1851F
:101F6000C184FFF792F910BD0168CA6822F490722B
:101F7000CA6001684A6922F001024A61202180F8A2
:101F80003A10704710B590F83A10222901D002207B
:101F900010BD8168B1F5805F11D001690029016829
:101FA0001FD0496801F07F03816A4A1C82620B706E
:101FB000C18D491E0904090CC18518D02BE00269A6
:101FC000816A002A0268526805D0D2B20A80816A0A
:101FD000491C8162ECE7C2F308020A80816A891C0D
:101FE000F7E74A68816A4B1C83620A70E0E7016880
:101FF000CA6822F02002CA600168CA6822F48072AE
:10200000CA6001684A6922F001024A61202180F811
:102010003A10FFF761FA002010BD00002DE9F041F1
:10202000044600680169E26821F4405111430161EE
:102030002169A0680843616908432168CA6841F2C0
:102040000C639A430243CA6020684169A26921F483
:102050004071114341614C49206864253226884211
:102060003CD1FEF75FFE00EBC00101EB00106168A0
:102070008900B0FBF1F7FEF755FE00EBC00101EB64
:1020800000106168B0468900B0FBF1F0B0FBF5F0DC
:102090006FF01801484307EB800106EB0110B0FB1D
:1020A000F5F000F0F006FEF73DFE00EBC00101EB9D
:1020B000001061688900B0FBF1F0B0FBF5F006EBB1
:1020C0000016FEF72FFE00EBC00101EB0010616867
:1020D0008900B0FBF1F7FEF725FE3BE0FEF712FEAC
:1020E00000EBC00101EB001061688900B0FBF1F763
:1020F000FEF708FE00EBC00101EB00106168B0467E
:102100008900B0FBF1F0B0FBF5F06FF01801484327
:1021100007EB800106EB0110B0FBF5F000F0F006D4
:10212000FEF7F0FD00EBC00101EB001061688900D3
:10213000B0FBF1F0B0FBF5F006EB0016FEF7E2FDA8
:1021400000EBC00101EB001061688900B0FBF1F702
:10215000FEF7D8FD00EBC00101EB001061688900BB
:10216000B0FBF1F0B0FBF5F06FF01801484307EB5E
:10217000800108EB0110B0FBF5F0216800F00F00C2
:1021800030448860BDE8F0810038014090F8391093
:10219000212901D0022070478168B1F5805F016A72
:1021A0000BD04A1C0262026809785160C18C491E3A
:1021B0000904090CC1840ED017E009880268C1F334
:1021C0000801516001690029016A02D0491C0162BD
:1021D000ECE7891CFBE70168CA6822F08002CA604C
:1021E0000068C16841F04001C160002070470000F4
:1021F0000148FFF74BB80000900000200148FFF7AE
:1022000045B80000D0000020FEE7000001498882A8
:1022100000207047401A00200149C8820020704702
:10222000401A00200FB4084B10B504A902AA039865
:1022300000F01CF8044602A9002000F0C1F8204676
:1022400010BC5DF814FB0000C123000802E008C8C0
:10225000121F08C1002AFAD170477047002001E020
:1022600001C1121F002AFBD1704700002DE9FF4F6A
:1022700089B09B460446002506E025280BD05A4627
:102280000B999047641C6D1C20780028F5D10DB087
:102290002846BDE8F08F0027B8460122474900E0F4
:1022A000074314F8013F203B02FA03F00842F7D13C
:1022B00020782E2819D114F8010F47F004072A2896
:1022C0000ED06FF02F022078A0F1300109290CD830
:1022D00008EB880102EB410100EB0108641CF2E706
:1022E0000A98641C50F8048B0A9020780028CED0FD
:1022F000642808D0692806D075281ED05A460B9944
:1023000090476D1C58E00A994FF00A0901C90A91DB
:10231000002802DA40422D2102E0390504D52B21A4
:102320008DF82010012103E0F90704D02021F7E700
:102330008A4608AE0DE00021FAE70A994FF00A0933
:1023400001C90A91F7E74946FDF75CFF303106F80D
:10235000011D0028F7D1ADEB060000F12009780738
:1023600001D44FF00108C84502DDA8EB090000E0E8
:1023700000208046002706E008A85A46C05D0B9959
:1023800090476D1C7F1C5745F6DB04E030205A4611
:102390000B9990476D1CB8F10001A8F10108F5DC1C
:1023A00005E016F8010B5A460B9990476D1CB9F1E0
:1023B0000001A9F10109F4DC641C65E709280100AA
:1023C0000A68531C0B6010707047000094B0FEF751
:1023D00015FBFFF739FDFFF7E1F8274825494FF4D2
:1023E000E13500240160C0E901540C26C460C0E955
:1023F00004468461C461FEF7D1FF1F481F49403085
:102400000160C0E90154C460C0E904468461C4614C
:10241000FEF7C4FF14221A496846FDF7CFFE0021DB
:10242000684600F043F8174C15491422A060143197
:1024300005A8FDF7C3FE002105A800F037F81049F4
:10244000E060142228310AA8FDF7B8FE00210AA88E
:1024500000F02CF80A49206114223C310FA8FDF746
:10246000ADFE00210FA800F021F8606100F019F81E
:10247000FEE70000003801409000002000440040CA
:10248000A04000080000002001460020842900D060
:10249000C81C704710B500B9012000F017FB0020E0
:1024A00010BD10B500F038FB002010BD3EB504464D
:1024B0000D46B0F90800FFF7E7FF02A9CDE90001DA
:1024C000208A2B4682B2D4E9001000F0C9FB012813
:1024D00001D000203EBD02983EBD00002DE9F04134
:1024E000184C0F460546E6682068001D00F038FAD3
:1024F00038B9206890F82C10012088402169814368
:102500002161681C07D137B12168BDE8F0410E4850
:10251000091D00F05DBA20683544B5424560216868
:1025200005D2A06BBDE8F041091D00F039BA606B1F
:10253000091D00F035FAA06A854200D2A562BDE807
:10254000F0810000280000202C0200202DE9F0413D
:10255000054600F049FA2E4CA068401CA060206897
:102560002C4F10B1606940B32DE02560A0680128B0
:1025700029D1002606EB860007EB800000F002FA66
:10258000761C072EF6D323488C3000F0FBF9214847
:10259000A03000F0F7F91F48B43000F0F3F91D48FF
:1025A000C83000F0EFF91B48DC3000F0EBF91948B7
:1025B0008C3060631430A06305E02068E96AC06A6B
:1025C000884200D82560606A401C6062E96A012088
:1025D000226988401043206101EB810007EB8000F5
:1025E000291D00F0F5F900F01FFA606900280CD0F1
:1025F0002068E96AC06A884207D207494FF08050D4
:102600000860BFF34F8FBFF36F8FBDE8F08100000C
:10261000280000205001002004ED00E070B5114EAC
:10262000114C17E000F0ACFA3068B8B100F0A8FB2C
:1026300000F0DAF9F068C568281D00F091F9A0688B
:10264000401EA0606068401E606000F0EDF9284602
:1026500000F00CF860680028E4D170BD00F090FB39
:10266000F8E70000180200202800002010B50446FA
:10267000006B00F0EDF92046BDE8104000F0E8B92D
:1026800010484FF4C051420706D0C01D0D4920F03C
:102690000700411AC1F5C0510B4A00230144C2E9A9
:1026A00000030839103A21F0070111604B600B60FC
:1026B0000B1AC0E9001393604FF000405360D060E4
:1026C000704700004002002074000020074C4FF0CB
:1026D0008056074DFFF7A2FF20680128FAD92E6027
:1026E000BFF34F8FBFF36F8FF4E70000500100205E
:1026F00004ED00E02DE9F0479A46DDE909848146C2
:102700006FF00303206B03EB82021044089D20F05E
:102710000706700707D0502080F31188BFF34F8F52
:10272000BFF36F8FFEE723180A5C83F834200A5C3E
:1027300012B1401C1028F6D3002784F84370072DEF
:1027400000D30625E562C4E91157201D00F025F9E4
:1027500004F1180000F021F92461C5F1070064625A
:10276000A061E76484F8507052464946304600F054
:10277000BFF82060B8F1000F01D0C8F80040BDE8F4
:10278000F087000030B5114900E011460A68824226
:10279000FBD34B685C18844203D1406818444860FE
:1027A000084643681C18944209D1084C103C246820
:1027B000A24209D052681A4442600A681268026054
:1027C000814200D0086030BD0460F9E77400002049
:1027D0000648416B096829B1416BC968C9684968F5
:1027E000816270474FF0FF31FAE7000028000020B7
:1027F00008484068401C4FF0500080F3118804D016
:10280000BFF34F8FBFF36F8FFEE7BFF34F8FBFF361
:102810006F8FFEE77C0000202DE9F0410546002780
:1028200000F0AEF9314E306808B9FFF729FFF068C3
:1028300005424BD1C5B3083568070ED005F0070037
:10284000C0F108000544680707D0502080F31188C4
:10285000BFF34F8FBFF36F8FFEE72DB370688542D4
:1028600034D82248103001460C6801E020460C465E
:102870006168A94202D221680029F7D131688C42EF
:1028800024D007682168016060680837411B10295F
:102890000FD96019420708D0502080F31188BFF388
:1028A0004F8FBFF36F8FFEE710E041606560FFF769
:1028B00069FF61687068401A7060B268904200D227
:1028C000B060F06801430020C4E9000100F058FA4C
:1028D000780707D0502080F31188BFF34F8FBFF3E4
:1028E0006F8FFEE73846BDE8F081000064000020ED
:1028F00010B5031F4FF080741C601B1F21F00101F5
:102900001960191F024B0B60143940380A6010BD62
:10291000F127000870B540F300020F4D0446402136
:102920002846521CFEF757F844F3400280212846FF
:10293000521CFEF750F8094D44F38002012128464D
:10294000521CFEF748F844F3C0022846BDE8704028
:102950000221521CFEF73FB800080140000C014064
:10296000D0E9013201699A60D0E901235A604A68CE
:10297000824201D182684A60002202610868401EDA
:102980000860704700F108014FF0FF32C0E9011202
:10299000C160016100210160704700210161704741
:1029A00030B50B685A1C02D000F1080202E002693F
:1029B00004E02246546825689D42FAD953684B606A
:1029C00099608A60516008610168491C016030BDEE
:1029D00042684A6093688B609368596091600861AF
:1029E0000168491C01607047502080F31188BFF3D3
:1029F0004F8FBFF36F8F0A494868401C4860012819
:102A00000CD10848006810F0FF0F07D0502080F369
:102A10001188BFF34F8FBFF36F8FFEE77047000041
:102A20007C00002004ED00E00849486828B1401E01
:102A3000486001D180F311887047502080F31188DD
:102A4000BFF34F8FBFF36F8FFEE700007C000020C5
:102A500070B5002827D0144DA0F108046168E8681B
:102A6000014207D1502080F31188BFF34F8FBFF38D
:102A70006F8FFEE722683AB1502080F31188BFF3D0
:102A80004F8FBFF36F8FFEE78143616000F078F8EE
:102A900060686968084468602046FFF773FEBDE817
:102AA000704000F06DB970BD6400002006484FF41E
:102AB0007A710068B0FBF1F14FF0E020491E4161EE
:102AC00007210161704700002400002010B50200BA
:102AD00014D00F48006B38B1502080F31188BFF339
:102AE0004F8FBFF36F8FFEE700F04AF800211046CA
:102AF000FFF7F4FC00F044F9002807D105494FF036
:102B000080500860BFF34F8FBFF36F8F10BD000080
:102B10002800002004ED00E01CB515480024CDE994
:102B200000402346802213A1144800F099F80128A0
:102B300009D0401C1AD1502080F31188BFF34F8F69
:102B4000BFF36F8FFEE7502080F31188BFF34F8FE4
:102B5000BFF36F8F06484FF0FF312C38816201219F
:102B60004161C460BDE81C4000F040B81CBD0000DD
:102B70005400002049444C4500000000CD260008C8
:102B80000248016B491C01637047000028000020C7
:102B90001448016B11B10121C16170470021C1616D
:102BA0000169B1FA81F1C1F11F0101EB81020E4906
:102BB00051F822306BB101EB820101F108034A6840
:102BC00052684A609A4201D152684A60D1680160F5
:102BD0007047502080F31188BFF34F8FBFF36F8F82
:102BE000FEE7000028000020500100201CB5194914
:102BF00008780190FF20087008788DF800009DF893
:102C00000000154A00F0500010700720906005E0A9
:102C10009DF800305B008DF80030401E9DF80030BC
:102C20001B06F5D4000200F4E06090600198087083
:102C30000A48016841F470010160016841F0704187
:102C40000160FFF733FF00205060FDF76BFA0020B2
:102C50001CBD000000E400E07C00002020ED00E04E
:102C60002DE9FF5F8346DDE90E87994616468A46C1
:102C70009000FFF7D1FD05001AD05420FFF7CCFDDE
:102C8000040012D025630021CDE90241CDE900877F
:102C90004B46324651465846FFF72CFD2046FFF77B
:102CA00055FC012004B0BDE8F09F2846FFF7D0FE98
:102CB0004FF0FF30F6E700002DE9F0412E4C0027E1
:102CC000206B40B1A069401CA061E06900B1012700
:102CD0003846BDE8F081E668761CE66013D1606B8B
:102CE000006838B1502080F31188BFF34F8FBFF3D5
:102CF0006F8FFEE7606BA16B6163A063206A401C6D
:102D00002062FFF765FDA06ADFF87080864209D374
:102D1000606B006880B1606BC068C5686868864297
:102D20000DD2A0622068C06A00EB800158F8210033
:102D30000128CAD90127C8E74FF0FF30F1E7281D65
:102D4000FFF70EFEA86A18B105F11800FFF708FE9C
:102D5000E86A0121226981401143216100EB800171
:102D600008EB8100291DFFF733FEE86A2168C96A74
:102D70008842CDD30127CBE7280000205001002056
:102D80002DE9F0472C4D00242746286B38B1FFF77A
:102D90002BFE286B401E2863286B40B146E0502074
:102DA00080F31188BFF34F8FBFF36F8FFEE7A968E1
:102DB000224E0120D1B3A6F1B40980463068E8B1B3
:102DC000F068C46804F11800FFF7CAFD201DFFF782
:102DD000C7FDE06A2A6908FA00F11143296100EB96
:102DE000800109EB8100211DFFF7F2FDE06A2968EF
:102DF000C96A8842E2D3C5F81C80DFE70CB1FFF74F
:102E0000E7FCAC6944B14646FFF756FF00B1EE61FE
:102E1000641EF9D10020A861E86938B1084901278A
:102E200038070860BFF34F8FBFF36F8FFFF7FCFDCC
:102E30003846BDE8F087000028000020040200208A
:102E400004ED00E0020000000000000000000000AF
:102E500000000000000000037C00000000000000F3
:102E6000000000000000001FFFF000000000000054
:102E7000000000000000003FFFF80000000000001C
:102E800000000000000000FFFFFC00000000000048
:102E900000000000000001FFFFFE00000000000035
:102EA00000000000000003FFFFFF00000000000022
:102EB00000000000000007FFFFFF8000000000008E
:102EC0000000000000000FFFFFFFC0000000000036
:102ED0000000000000001FFFFFFFC0000000000016
:102EE0000000000000001FFFFFFFC0000000000006
:102EF0000000000000001FFFFFFFE00000000000D6
:102F00000000000000003FFFFFFFE00000000000A5
:102F10000000000000003FFFFFFFE0000000000095
:102F20000000000000003FFFFFBFF00000000000B5
:102F30000000000000003FFFFF07F000000000005D
:102F40000000000000003FFFFF03E0000000000061
:102F50000000000000003FFFFF03E0000000000051
:102F60000000000000003FFFFF81E00000000000C3
:102F70000000000000003FFFFFC1E0000000000073
:102F80000000000000003FFFFFC0E0000000000064
:102F90000000000000003FFFFFF8E000000000001C
:102FA0000000000000001FFFFFFC600000000000A8
:102FB0000000000000001FFFFFE0600000000000B4
:102FC0000000000000001FFFFFE0600000000000A4
:102FD0000000000000001FFFEFFC400000000000A8
:102FE0000000000000001FFFEFF9C000000000001B
:102FF0000000000000001FFFFFF8C00000000000FC
:103000000000000000001FFFFFF0A0000000000013
:103010000000000000001FFFFFF88000000000001B
:103020000000000000000FFFDBF8000000000000BF
:103030000000000000000FFFEDF0000000000000A5
:103040000000000000000FFFE7F10000000000009A
:1030500000000000000007FFE3FC0000000000008B
:1030600000000000000007FFE5F000000000000085
:1030700000000000000007FFECE00000000000007E
:1030800000000000000007FFFEE00000000000005C
:1030900000000000000007FFFC60000000000000CE
:1030A00000000000000007FFFE000000000000001C
:1030B00000000000000007FFFF800000000000008B
:1030C00000000000000003FFFEC000000000000040
:1030D00000000000000003FFFFE00000000000000F
:1030E00000000000000003FFFFE0000000000000FF
:1030F00000000000000001FFFE6000000000000072
:1031000000000000000001FFFC00000000000000C3
:1031100000000000000000FFFE00000000000000B2
:10312000000000000000007FFE0000000000000022
:10313000000000000000007FFC0000000000000014
:10314000000000000000003FFC1000000000000034
:10315000000000000000007FFC20000000000000D4
:1031600000000000000003FFFE61E000000000001E
:103170000000000000000FFFFFC1F0000000000091
:103180000000000000003FFFFF81FF000000000082
:10319000000000000000FFFFFF00FFE00000000053
:1031A000000000000001FFFFFFC1FFFC0000000065
:1031B00000000000007FFFFFFFE1FFFE00000000B5
:1031C0000000000001FFFFFFFFE1FFFF80000000A3
:1031D000000000003FFFFFFFFFEFFFFFC000000007
:1031E000000000003FFFFFFFFFFFFFFFF0000000B7
:1031F000000000003FFFFFFFFFFFFFFFF80000009F
:10320000000000003FFFFFFFFFDFFFFFF8000000AE
:1032100080003C0010000100502E0008442E0008E1
:10322000000000000000000000000000000020205E
:10323000202020000020000028285000000000006E
:103240000000000000005050F85050F850500000AE
:10325000002070A8A0603028A8702000000048A8B6
:10326000B0A874345448000000002050506CA8A846
:103270009468000040408000000000000000000052
:1032800008101020202020201010080040202010BE
:10329000101010102020400000000020A87070A81E
:1032A0002000000000000010107C10100000000042
:1032B000000000000000000040408000000000000E
:1032C00000FC000000000000000000000000000002
:1032D000004000000004080810102020404080003A
:1032E000000070888888888888700000000020604E
:1032F00020202020207000000000708888102040CE
:1033000080F800000000708808300808887000000D
:1033100000001030305090F8103800000000F880A5
:1033200080F08808887000000000304880B0C888AD
:103330008870000000007808101020202020000075
:10334000000070888870888888700000000070888D
:1033500088986808906000000000000020000000CD
:1033600000200000000000000020000000202000DD
:10337000000008102040402010080000000000005D
:10338000FC00FC00000000000000402010080810B5
:1033900020400000000070888810202000200000DD
:1033A0000000384494B4B4B8443800000000202031
:1033B0003050507848CC00000000F0484870484831
:1033C00048F00000000078888080808088700000CD
:1033D0000000F0484848484848F000000000F8481D
:1033E0005070504048F800000000F84850705040BD
:1033F00040E000000000384880809C884830000091
:103400000000CC484878484848CC00000000F8202C
:103410002020202020F8000000007C101010101048
:10342000101090E00000EC485060504848EC00005C
:103430000000E0404040404044FC00000000DCD878
:10344000D8D8A8A8A8AC00000000DC486868585884
:1034500048E800000000708888888888887000002C
:103460000000F0484870404040E0000000007088D4
:10347000888888E8987018000000F0484870504824
:1034800048EC0000000078888060100888F0000098
:103490000000F8A820202020207000000000CC4868
:1034A00048484848483000000000CC484850503058
:1034B000202000000000A8A8A8A8705050500000CC
:1034C0000000D8505020205050D800000000D850A4
:1034D00050502020207000000000F8901020204064
:1034E00048F800003820202020202020202038000C
:1034F000004040202020101010080800701010100C
:10350000101010101010700020500000000000007B
:10351000000000000000000000000000000000FCAF
:10352000402000000000000000000000000000003B
:1035300000304838483C000000C0404040704848D7
:10354000487000000000000000384840483000008B
:103550000018080808384848483C000000000000EF
:1035600000304878403800000018242020782020BF
:103570002078000000000000003C4830403844380B
:1035800000C040404070484848EC00000020200047
:10359000006020202070000000101000003010108B
:1035A000101010E000C040404058506050C800006B
:1035B00000E020202020202020F800000000000053
:1035C00000F0A8A8A8A800000000000000F04848EB
:1035D00048EC00000000000000304848483000007F
:1035E0000000000000F04848487040E00000000083
:1035F000003848484838081C0000000000D86040E7
:1036000040E0000000000000007840300878000032
:10361000000000202078202020380000000000005A
:1036200000D84848483C00000000000000D8505036
:10363000202000000000000000A8A87050500000EA
:103640000000000000D8502050D80000000000000A
:1036500000CC4848301020C0000000000078102046
:1036600020780000181010101030101010101800E2
:1036700010101010101010101010101060202020CA
:103680002010202020206000689000000000000032
:10369000000000000000000000000000000000002A
:1036A0000020BE2062A02AA02AA0AAA06AA02AA068
:1036B0002AA04820942022600200E200AFE0A4008B
:1036C000C500C900AFE0A100A940C9209120830036
:1036D00017C0E440244027C0F00027C071006900F3
:1036E000A7C0210021002FE004007FC044404440D7
:1036F0007FC00400FFE084208420FFE084200400D9
:103700000400040004000400FFE004000A000A00B2
:10371000110011002080C060040007E004000400D4
:103720007FC04040404040407FC000005240892060
:1037300008000800FF8088808880FF80888088805B
:10374000FF808820082007E0220021002FE0F00001
:10375000200067807480A480248024A028A030608A
:10376000210078804FE0680058004B80FA804A8042
:103770006A805AA04CA0986004000A0011002080C2
:10378000C0603F8000007FC0404040407FC040405C
:103790002080FFE020803F8020803F802080FFE06D
:1037A0004440BFA00400FFE0210021002FE0F10011
:1037B00021002FC03440E4402280210022806C6030
:1037C0004100210001000100E1002FE02100210063
:1037D000290031002100010011001100FFE011005B
:1037E0000000FFC008400840084008C0080008006A
:1037F00023E03920492092607C0055407DE056400E
:103800007C4055E054408C401080E4802280208031
:10381000FC802280708068E0A7802080208020804B
:103820009FC052401FC01240DFC042007FE04200F4
:1038300047006A805260020000007FC04040404064
:10384000404040404040404040407FC04040000039
:1038500023E022A023E0FAA0ABE0A940FB802120D6
:103860002BE03880CAC005A04780248004800480F3
:10387000E86020002FC024402280310022800C60AC
:1038800080A040800FE00080C0804E804480448053
:10389000448046A06C604020410079E092403F8027
:1038A00020803F8020803F802080FFE011002100A9
:1038B00004000400FFE00A0011002480C26004003C
:1038C0005240522090A00F809F80448003001FC070
:1038D000D2405FC052405FC0524052C04000BFE083
:1038E0002100208047E09100E240242047E0F2A040
:1038F00002803280C4A008600100F08097E094202C
:10390000A000A220924092809300E220822081E0D9
:1039100000007FC0040004000400FFE00A000A0069
:1039200012002220422081E003C07C0008001080A9
:103930003F00060018407FE00420248044408C2093
:103940002140212041E09700E10021E04700F140C3
:1039500001803120C2A00C60220021005FE0400005
:10396000CFC040004FC040004FC048404FC048400B
:1039700048402480FFE080203F8001000200FFE0FB
:103980000400040004001C00120011002120282063
:103990006820A44024402280210022802440282046
:1039A00088004F8010803FC0D2405FC045004A80F1
:1039B000522061E04000BFE07FC00400040004002A
:1039C0000400FFE0040004000400040004001C00E4
:1039D00020801100FFE0A4A09520FFE000007FC040
:1039E00040407FC040407FC0102012201220522053
:1039F0005AA09660122012202220222042208020ED
:103A000008008FE052200540488090600800FFE0E9
:103A1000108031000E00F1C000003F800100020064
:103A200004000400FFE004000400040004001C0083
:103A300021002FE048209000E7C020004000EFE088
:103A400001002540C92003008100F08007E0F1005B
:103A50009240B7E0F8209540B540F54015406860C9
:103A60000606010020320008060601002C3200087C
:103A7000060601003832000806060100443200083C
:103A80000606010050320008060601005C320008FC
:103A900006060100683200080606010074320008BC
:103AA0000606010080320008060601008C3200087C
:103AB000060601009832000806060100A43200083C
:103AC00006060100B032000806060100BC320008FC
:103AD00006060100C832000806060100D4320008BC
:103AE00006060100E032000806060100EC3200087C
:103AF00006060100F832000806060100043300083B
:103B00000606010010330008060601001C330008F9
:103B100006060100283300080606010034330008B9
:103B20000606010040330008060601004C33000879
:103B30000606010058330008060601006433000839
:103B40000606010070330008060601007C330008F9
:103B500006060100883300080606010094330008B9
:103B600006060100A033000806060100AC33000879
:103B700006060100B833000806060100C433000839
:103B800006060100D033000806060100DC330008F9
:103B900006060100E833000806060100F4330008B9
:103BA0000606010000340008060601000C34000877
:103BB0000606010018340008060601002434000837
:103BC0000606010030340008060601003C340008F7
:103BD00006060100483400080606010054340008B7
:103BE0000606010060340008060601006C34000877
:103BF0000606010078340008060601008434000837
:103C00000606010090340008060601009C340008F6
:103C100006060100A834000806060100B4340008B6
:103C200006060100C034000806060100CC34000876
:103C300006060100D834000806060100E434000836
:103C400006060100F034000806060100FC340008F6
:103C500006060100083500080606010014350008B4
:103C60000606010020350008060601002C35000874
:103C70000606010038350008060601004435000834
:103C80000606010050350008060601005C350008F4
:103C900006060100683500080606010074350008B4
:103CA0000606010080350008060601008C35000874
:103CB000060601009835000806060100A435000834
:103CC00006060100B035000806060100BC350008F4
:103CD00006060100C835000806060100D4350008B4
:103CE00006060100E035000806060100EC35000874
:103CF00006060100F8350008060601000436000833
:103D00000606010010360008060601001C360008F1
:103D100006060100283600080606010034360008B1
:103D20000606010040360008060601004C36000871
:103D30000606010058360008060601006436000831
:103D40000606010070360008060601007C360008F1
:103D500006060100883600080606010094360008B1
:103D60000C0C0200A03600080C0C0200B83600084B
:103D70000C0C0200D03600080C0C0200E8360008DB
:103D80000C0C0200003700080C0C02001837000869
:103D90000C0C0200303700080C0C020048370008F9
:103DA0000C0C0200603700080C0C02007837000889
:103DB0000C0C0200903700080C0C0200A837000819
:103DC0000C0C0200C03700080C0C0200D8370008A9
:103DD0000C0C0200F03700080C0C02000838000838
:103DE0000C0C0200203800080C0C020038380008C7
:103DF0000C0C0200503800080C0C02006838000857
:103E00000C0C0200803800080C0C020098380008E6
:103E10000C0C0200B03800080C0C0200C838000876
:103E20000C0C0200E03800080C0C0200F838000806
:103E30000C0C0200103900080C0C02002839000894
:103E40000C0C0200403900080C0C02005839000824
:103E50000C0C0200703900080C0C020088390008B4
:103E60000C0C0200A03900080C0C0200B839000844
:103E70000C0C0200D03900080C0C0200E8390008D4
:103E80000C0C0200003A00080C0C0200183A000862
:103E90000C0C0200303A00080C0C0200483A0008F2
:103EA000B9D8B9D8983E000800000000DBD7DBD7AE
:103EB000903E0008A03E0008D3D7D3D7883E000824
:103EC000AC3E0008CBD7CBD7803E0008B83E0008F8
:103ED000DDD6DDD6783E0008C43E0008F8D4F8D41C
:103EE000703E0008D03E0008DAD3DAD3683E0008FE
:103EF000DC3E0008DDD2DDD2603E0008E83E00086E
:103F0000C7D2C7D2583E0008F43E0008A7D1A7D1B7
:103F1000503E0008003F0008C5D0C5D0483E00080C
:103F20000C3F0008DFCFDFCF403E0008183F0008FD
:103F3000B5CFB5CF383E0008243F0008DECEDECE38
:103F4000303E0008303F0008D3CDD3CD283E0008D6
:103F50003C3F0008B3CDB3CD203E0008483F0008E9
:103F6000A8CDA8CD183E0008543F0008ACCCACCC7E
:103F7000103E0008603F0008E3CBE3CB083E00089A
:103F80006C3F0008D4CAD4CA003E0008783F00083D
:103F9000E8C9E8C9F83D0008843F0008DDC2DDC279
:103FA000F03D0008903F0008DABFDABFE83D0008A6
:103FB0009C3F0008CEBFCEBFE03D0008A83F0008F0
:103FC000C6BFC6BFD83D0008B43F0008E2BDE2BD91
:103FD000D03D0008C03F0008DABDDABDC83D00088A
:103FE000CC3F0008C6BCC6BCC03D0008D83F000896
:103FF000BCBCBCBCB83D0008E43F0008F9BBF9BB41
:10400000B03D0008F03F0008CFBACFBAA83D000885
:10401000FC3F0008BCBABDBA983D00080840000843
:10402000E7B5E7B5903D000814400008E3B5E3B5F7
:10403000883D000820400008F3B4F3B4803D000838
:104040002C400008AEB4AEB4783D000838400008FB
:10405000CCB3CCB3703D000844400008C2B3C2B337
:10406000683D000850400008E2B2E2B2603D00083E
:104070005C40000820007F00603A000868400008AB
:10408000F903000891040008BD040008C3040008F7
:10409000000000000C0C010174400008000000004A
:1040A000C0480008AD1A0008000000000000000031
:1040B00080000000CC4800084D1D0008FDFF0000F6
:1040C0000000000080000000B4480008B51A000895
:1040D000FDFF00000000000080000000AC48000868
:1040E000291D0008FDFF0000000000008000000006
:1040F0000000000000000000010203040607080998
:1041000000000000010203040000000000000000A5
:104110008080808080008000A0A0A00000000000BF
:104120005050F850F85050002078A07028F020002F
:10413000C0C81020409818006090A040A890680067
:10414000C0408000000000002040808080402000AF
:104150008040202020408000005020F820500000A7
:10416000002020F8202000000000000000C0408057
:10417000000000F8000000000000000000C0C000C7
:104180000008102040800000708898A8C88870003F
:104190002060202020207000708808304080F800C7
:1041A000708808300888700010305090F8101000A7
:1041B000F880F00808887000304080F0888870002F
:1041C000F80810204040400070888870888870008F
:1041D000708888780810600000C0C000C0C000006F
:1041E0000000C0C000C0408010204080402010006F
:1041F0000000F800F80000008040201020408000FF
:10420000708808102000200070880868A8A8700036
:10421000708888F888888800F08888F08888F0009E
:104220007088808080887000E09088888890E000A6
:10423000F88080F08080F800F88080F08080800036
:104240007088808098887800888888F888888800B6
:10425000E04040404040E0003810101010906000F6
:104260008890A0C0A0908800808080808080F80026
:1042700088D8A8A8888888008888C8A898888800CE
:104280007088888888887000F08888F08080800036
:1042900070888888A8906800F08888F0A0908800CE
:1042A0007088807008887000F8202020202020006E
:1042B0008888888888887000888888888850200046
:1042C000888888A8A8A8500088885020508888002E
:1042D0008888502020202000F80810204080F80016
:1042E000E08080808080E000008040201008000096
:1042F000E02020202020E000205088000000000066
:1043000000000000000000F88040200000000000D5
:1043100000007008788878008080B0C88888F00035
:104320000000609080906000080868988888780095
:1043300000007088F8807000205040E0404040004D
:1043400000007888887808708080B0C888888800E5
:10435000800080808080800020006020202020C09D
:10436000808090A0C0A09000C04040404040E0004D
:104370000000D0A8888888000000B0D090909000FD
:1043800000006090909060000000E09090E08080DD
:1043900000007090907010100000A0C0808080001D
:1043A000000070806010E0004040E040404040006D
:1043B0000000909090907000000088888850200045
:1043C00000008888A8A8500000008850205088006D
:1043D00000009090907010600000F8102040F800ED
:1043E000204040804040200040404040404040004D
:1043F00080404020404080006890000000000000A5
:1044000003030100084100080202010010410008F6
:1044100004040100184100080606010020410008BC
:104420000606010028410008060601003041000888
:10443000060601003841000803030100404100085E
:104440000404010048410008040401005041000830
:1044500006060100584100080606010060410008F8
:1044600003030100684100080606010070410008CE
:10447000030301007841000806060100804100089E
:104480000606010088410008060601009041000868
:10449000060601009841000806060100A041000838
:1044A00006060100A841000806060100B041000808
:1044B00006060100B841000806060100C0410008D8
:1044C00006060100C841000806060100D0410008A8
:1044D00003030100D841000803030100E041000884
:1044E00005050100E841000806060100F04100084A
:1044F00005050100F8410008060601000042000819
:1045000006060100084200080606010010420008E5
:1045100006060100184200080606010020420008B5
:104520000606010028420008060601003042000885
:104530000606010038420008060601004042000855
:104540000606010048420008040401005042000829
:1045500006060100584200080606010060420008F5
:1045600006060100684200080606010070420008C5
:104570000606010078420008060601008042000895
:104580000606010088420008060601009042000865
:10459000060601009842000806060100A042000835
:1045A00006060100A842000806060100B042000805
:1045B00006060100B842000806060100C0420008D5
:1045C00006060100C842000806060100D0420008A5
:1045D00006060100D842000804040100E042000879
:1045E00006060100E842000804040100F042000849
:1045F00006060100F8420008060601000043000814
:1046000006060100084300080606010010430008E2
:1046100006060100184300080505010020430008B4
:104620000606010028430008060601003043000882
:104630000505010038430008060601004043000854
:10464000060601004843000802020100504300082A
:1046500004040100584300080505010060430008F8
:1046600004040100684300080606010070430008C6
:104670000505010078430008050501008043000896
:104680000505010088430008050501009043000866
:10469000040401009843000805050100A043000838
:1046A00004040100A843000805050100B043000808
:1046B00006060100B843000806060100C0430008D2
:1046C00006060100C843000805050100D0430008A4
:1046D00006060100D843000804040100E043000876
:1046E00003030100E843000804040100F04300084C
:1046F00006060100F843000820007E000044000880
:1047000000000000F903000891040008BD0400083F
:10471000C30400080000000008080101F846000872
:1047200000000000BBF9D3DA53544D3332B5C4CE88
:10473000DECFDFBDDAB5E30A0A2020CFB5CDB3B2B4
:10474000E2CAD40A2020CDD3C2DDD2C7D7CBCCACAD
:10475000BDE2CBE30A2020B4AEBFDACDA8D0C5B20B
:10476000E2CAD40A202057494649CDA8D0C5B2E2B2
:10477000CAD40A00BBF9D3DA53544D3332B5C4CE90
:10478000DECFDFBDDAB5E30A0A2D3ECFB5CDB3B239
:10479000E2CAD40A2020CDD3C2DDD2C7D7CBCCAC5D
:1047A000BDE2CBE30A2020B4AEBFDACDA8D0C5B2BB
:1047B000E2CAD40A202057494649CDA8D0C5B2E262
:1047C000CAD40A00BBF9D3DA53544D3332B5C4CE40
:1047D000DECFDFBDDAB5E30A0A2020CFB5CDB3B214
:1047E000E2CAD40A2D3ECDD3C2DDD2C7D7CBCCACE2
:1047F000BDE2CBE30A2020B4AEBFDACDA8D0C5B26B
:10480000E2CAD40A202057494649CDA8D0C5B2E211
:10481000CAD40A00BBF9D3DA53544D3332B5C4CEEF
:10482000DECFDFBDDAB5E30A0A2020CFB5CDB3B2C3
:10483000E2CAD40A2020CDD3C2DDD2C7D7CBCCACBC
:10484000BDE2CBE30A2D3EB4AEBFDACDA8D0C5B2EF
:10485000E2CAD40A202057494649CDA8D0C5B2E2C1
:10486000CAD40A00BBF9D3DA53544D3332B5C4CE9F
:10487000DECFDFBDDAB5E30A0A2020CDD3C2DDD218
:10488000C7D7CBCCACBDE2CBE30A2020B4AEBFDAB5
:10489000CDA8D0C5B2E2CAD40A2D3E57494649CD6B
:1048A000A8D0C5B2E2CAD40A000000004C65645426
:1048B00061736B00446973705461736B0000000096
:1048C00064656661756C745461736B004B657954F3
:1048D00061736B00F44800080000002090000000A5
:1048E0004C2200088449000890000020D0210000DC
:1048F0005C22000800000000010000000000000031
:1049000000000000000000000000000001000000A6
:10491000100000000000000000A24A040000000097
:104920000000000000000000000000000000000087
:104930000000000000000000000000000000000077
:104940000000000000000000000000000000000067
:104950000000000000000000000000000000000057
:104960000000000000000000000000000000000047
:1049700000000000AAAAAAAA00000000000000008F
:044980000000000033
:04000005080000ED02
:00000001FF
